:10000000803102288731E52F22008C140800163039
:100010002100970008000034403414345434FD307B
:10002000F000700822008C05080064008001013196
:10003000890B1628003470302100990098012200A5
:100040009601080020000C0CF000F00C700C013937
:10005000080024001E151E192E282F282B28080002
:1000600080318220803180311B2080318031072017
:100070008031080080314420803124001E141E1875
:10008000422843283F28080024001E081F39031D6A
:100090004A284B2844281C194E284F284428080079
:1000A000083080316E2080310830F2007208200064
:1000B000C8000630890B5A2800320800F00070088A
:1000C000240099001C186528662862281E1B6928D0
:1000D0006A2866288031442080310800F100803190
:1000E0003A2080314E3080315E208031710880317D
:1000F0005E2080318031292080310630890B7E28B6
:100100000032080022008C018D01FF3021008C009C
:10011000FF308D00FE3023008D001F308C00240046
:100120008D018C012100951722009D019E01080080
:10013000AB2878088400790885000008FA007A085E
:10014000FB000130F8070030F93DF201F20A7B08AC
:1001500081313321803178088400790885001200CC
:10016000031DB328B428992808002000A4005C08C7
:10017000A3005B08A2005A08A1005908A0000330A0
:100180007802031CC428C528C728F801F80A780893
:10019000203E86008701010824078038F90079088D
:1001A000A500F201250881313321803108002000AB
:1001B000A601A7012608FC007C08F800270880316A
:1001C000B52080312B30F8008830F900803198203C
:1001D00080310130FC007C082000A7071030270286
:1001E000031CF328F428DA280130FC007C08A60759
:1001F00002302602031CFD28FE28D92808007808B2
:1002000079040319042905292E29FD01FD0A112964
:100210000130F835F90D890B09290130FC007C0803
:10022000FD07F91F14291529082979087B02031DE8
:100230001B2978087A02031C1E291F292329780804
:10024000FA027908FB3B0130F936F80C890B2429B6
:100250000130FD02031D2D292E2915297B08F900E7
:100260007A08F8000800F5007508F0392000480405
:100270007204F3007308F6007508F3000330F335D9
:10028000FF3E031D3F297335F03948047204F40022
:100290007408F700760880316E20813176080438C2
:1002A00080316E2081317608FB3980316E208131BA
:1002B0004230890B59290032770880316E20813114
:1002C0007708043880316E2081317708FB3980311E
:1002D0006E2081310800F501F601700871040319E0
:1002E00072297329A229F701F70A7F290130F03515
:1002F000F10D890B77290130F4007408F707F11F1D
:100300008229832976290130F535F60D890B842958
:1003100071087302031D8E2970087202031C912953
:10032000922997297008F2027108F33B7514013085
:10033000F136F00C890B98290130F702031DA12931
:10034000A22983297608F1007508F0000800003022
:10035000F7000030F8000030F900720871047004F2
:100360000319B329B429EC29FA01FA0AC129013089
:10037000F035F10DF20D890BB8290130F600760841
:10038000FA07F21FC429C529B7290130F735F80D3E
:10039000F90D890BC62972087502031DD52971084C
:1003A0007402031DD52970087302031CD829D929AA
:1003B000E0297008F3027108F43B7208F53B7714EA
:1003C0000130F236F10CF00C890BE1290130FA0210
:1003D000031DEB29EC29C5297708F0007808F10006
:1003E0007908F2000800200042082D02B1002E0812
:1003F000B2004308031C430FFE29FF29B2022F0855
:10040000B3004408031C440F062A072AB30231082C
:10041000F0003208F1003308F200F30100308231BD
:10042000E622813173082000B7007208B600710817
:10043000B5007008B4004330F300F330F200003030
:10044000F1000030F0003708F7003608F6003508F4
:10045000F5003408F400863131268131730820001C
:10046000B7007208B6007108B5007008B40037080C
:10047000B0003608AF003508AE003408AD00080003
:100480002000A70080310F20823100302000A8001A
:100490000030A9000030AA000030A3000030A40002
:1004A0000030A500A601BF2A803122208231003A07
:1004B00003195B2A5C2A542A803122208231013AB6
:1004C0000319632A642A5C2A0630890B652A0032E4
:1004D0002000AB010130A835A90DAA0D890B6B2AAC
:1004E0008031042082310630890B742A0032803139
:1004F0000F2082318031222082312000A000A10112
:10050000A2012008A8072108A93D2208AA3D06301B
:10051000890B882A003201302000A0002008AB0798
:1005200018302B02031C952A962A6A2AAB018031C7
:10053000042082310630890B9B2A003280310F2043
:1005400082310630890BA22A003201302000A0003F
:100550002008AB072B080319AE2AAF2A972A2808D0
:10056000A3072908A43D2A08A53D0030A8000030B3
:10057000A9000030AA000130A0002008A607270823
:100580002602031CC42AC52A542A2708A000A10158
:10059000A2012008F0002108F1002208F20023083F
:1005A000F3002408F4002508F5008131A7218231E9
:1005B00070082000A8007108A9007208AA00280885
:1005C000FB002908FC002A08FD000800F800780854
:1005D0000319EB2AEC2A002BF31FEF2AF02A002B39
:1005E0007009FA007109FB007209FC007309FD0033
:1005F000FA0A0319FB0A0319FC0A0319FD0A082B5E
:100600007308FD007208FC007108FB007008FA0016
:100610007308720471047004031D0F2B102B192B27
:100620000030F3000030F2000030F1000030F00044
:10063000912B9630F4007408F900292B0130F40056
:100640007408F9070130FD36FC0CFB0CFA0C890B21
:10065000232BFE307D05031D2E2B2F2B1E2B432B12
:100660000130F4007408F9070130FA070030FB3D4F
:100670000030FC3D0030FD3D0130FD36FC0CFB0C34
:10068000FA0C890B3D2BFF307D05031D482B492BB0
:10069000302B532B0130F9020130FA35FB0DFC0DE4
:1006A000FD0D890B4D2BFC1B562B572B5D2B023060
:1006B000790203185C2B5D2B4A2B7918602B612B78
:1006C000692BFF30FA05FF30FB057F30FC05FF305A
:1006D000FD050310F90C7908F400F501F601F701A6
:1006E0001830F435F50DF60DF70D890B712B7408E4
:1006F000FA047508FB047608FC047708FD04780802
:100700000319832B842B892BF31F872B882B892B91
:10071000FD177D08F3007C08F2007B08F1007A08E1
:10072000F00008002000AF002230A6002608AA0032
:10073000522C2530300603199E2B9F2BAB2B3008F3
:10074000A6002F0886008701260881000130A60038
:100750002608AF07522CAB012108A7002008A600ED
:10076000A00A0319A10A26088400270885000008AA
:10077000B000003A0319662C643A0319C32B0D3AF2
:100780000319C32B522C2A0886008701403FAD0075
:10079000413FAE000230A6002608AA07AE1FD12BAB
:1007A000D22BDB2B0330A6002608AB04AD09AE0923
:1007B000AD0A0319AE0AB001B00A3008A600A701BD
:1007C000A635A70D0030260784008830273D850018
:1007D000003FA800013FA90029082E02031DF22BAB
:1007E00028082D020318F52BF62BF72B012C0130CE
:1007F000A6002608B00705303006031D002C012C8A
:10080000DD2B2B0803390319062C072C122C2D3055
:10081000A6002F0886008701260881000130A60067
:100820002608AF073008A6002608AC00492C0A307D
:10083000F8000030F9002C08A600A701A635A70D86
:100840000030260784008830273D8500003FF000F7
:10085000013FF1002E08F3002D08F20081316B21D9
:1008600083317108FB007008FA008031FF2083316A
:100870007808303E2000A8002808B0003008A60004
:100880002F0886008701260881000130A60026086F
:10089000AF07FF30A6002608AC072C0A031D512C19
:1008A000522C172C2108A7002008A600A00A031923
:1008B000A10A26088400270885000008A800280847
:1008C000B0003008031D652C662C992B2F0886007C
:1008D00087018101080080313020843124302400D8
:1008E0008D002100951323008C018D01083021001B
:1008F0008C0022008C018D01133024009A002830D6
:100900009D009E019C018531452584318031502018
:100910008431F80100308031B52084311B30F8007B
:100920008830F9008031982084310B302000B900E4
:100930002630B8005D30890B9B2CB80B9B2CB90B73
:100940009B2C003232308231402284317B082000DF
:10095000C2007C08C3007D08C4008031D7208431E8
:10096000F80100308031B52084310A30F800883039
:10097000F900803198208431F801F80A0030803184
:10098000B520843120004508AD004608AE00470878
:10099000AF008131F321843120003008BD002F08E1
:1009A000BC002E08BB002D08BA002630A0008830FD
:1009B000A1003D08A5003C08A4003B08A3003A089C
:1009C000A20049308331922384314930F80000304D
:1009D000F9008031982084311F302000B900713037
:1009E000B8001E30890BF22CB80BF22CB90BF22C8C
:1009F000000008308231402284317B082000C5008D
:100A00007C08C6007D08C7004508AD004608AE005A
:100A10004708AF008131F321843120003008C10044
:100A20002F08C0002E08BF002D08BE002630A000F1
:100A30008830A1004108A5004008A4003F08A30099
:100A40003E08A20049308331922384318031D7207F
:100A50008431F80100308031B52084314930F8000C
:100A60000030F90080319820843102302000B90034
:100A70000430B800BA30890B3B2DB80B3B2DB90BB5
:100A80003B2D0000F92C803102280530F3000F3097
:100A9000F200F130890B4A2DF20B4A2DF30B4A2D4F
:100AA0000000303080316E208531343080316E204E
:100AB0008531303080316E2085310D30F200FC30D0
:100AC000890B602DF20B602D303080316E20853126
:100AD000343080316E208531303080316E20853168
:100AE0000D30F200FC30890B732DF20B732D30307A
:100AF00080316E208531343080316E208531303048
:100B000080316E208531C830890B842D20308031B2
:100B10006E208531243080316E2085312030803147
:100B20006E2085310630890B932D003220308031C4
:100B30006E208531243080316E2085312030803127
:100B40006E2085314230890BA32D003280308031F8
:100B50006E208531843080316E2085318030803147
:100B60006E208531003080316E2085310430803137
:100B70006E208531003080316E2085314230890B06
:100B8000BF2D0032C03080316E208531C4308031BD
:100B90006E208531C03080316E208531003080314B
:100BA0006E208531043080316E20853100308031F7
:100BB0006E2085314230890BDB2D003210308031C0
:100BC0006E208531143080316E20853110308031B7
:100BD0006E2085310D30F200FC30890BED2DF20BCB
:100BE000ED2D003080316E208531043080316E2053
:100BF0008531003080316E2085314230890BFE2DE9
:100C00000032603080316E208531643080316E205A
:100C10008531603080316E208531003080316E202A
:100C20008531043080316E208531003080316E2076
:100C300085314230890B1A2E0032203080316E20EF
:100C40008531243080316E208531203080316E2016
:100C500085310830F200CA30890B2C2EF20B2C2E75
:100C6000080077088039F80078082000A40077355C
:100C7000F8007808AB00F61F3E2E3F2E402E2B14B6
:100C80002B080319442E452E552E2B0A031D492EE1
:100C90004A2E522E0030F7000030F6000030F500EA
:100CA0000030F400F617F7015D2E0030F700003039
:100CB000F6000030F5000030F40073088039F800C9
:100CC0007808A4067335F8007808AC00F21F692E86
:100CD0006A2E6B2E2C142C0803196F2E702E802E6A
:100CE0002C0A031D742E752E7D2E0030F30000306B
:100CF000F2000030F1000030F000F217F301882E0E
:100D00000030F3000030F2000030F1000030F0005D
:100D10007308720471047004031D8F2E902EA92E87
:100D20000030F7000030F6000030F5000030F4002D
:100D30008030F6047F30F7042408F8007808F704C0
:100D40007708F3007608F2007508F1007408F000E7
:100D5000E42F2B08031DAD2EAE2EB72E0030F3006E
:100D60000030F2000030F1000030F000E42F2B08DA
:100D7000F800F9017908FB002C087802FA00031C3E
:100D8000FB037A087F3EA50000307B3DA600770874
:100D9000A3007608A2007508A1007408A000003026
:100DA000F7000030F6000030F5000030F4000030AD
:100DB000AA000030A9000030A8000030A700AC0154
:100DC0001F2F2C080319E52EE62E002F0130A03529
:100DD000A10DA20DA30D890BE72E0130F435F50D01
:100DE000F60DF70D890BEE2EAA1FF72EF82EF92E11
:100DF00074140130A735A80DA90DAA0D890BFA2E80
:100E000073082302031D0E2F72082202031D0E2FEA
:100E100071082102031D0E2F70082002031C112FE0
:100E2000122F1B2F2A177008A0027108A13B72080D
:100E3000A23B7308A33B0130F8007808AC071A30D6
:100E40002C02031C242F252FE12E23082204210429
:100E5000200403192C2F2D2F462F2714462F013045
:100E6000F435F50DF60DF70D890B302FAA1F392F2C
:100E70003A2F3B2F74140130A735A80DA90DAA0DE8
:100E8000890B3C2FFF30A507FF30A63DF61F492FE9
:100E90004A2F2F2FAC01AA1F4E2F4F2F6B2FFF3041
:100EA0002705F800FF302805F900FF302905FA0072
:100EB0007F302A05FB007B087A0479047804031943
:100EC000622F632F662FAC01AC0A6B2F741C692F45
:100ED0006A2F6B2F632F2C0803196F2F702F982FF9
:100EE0000130F4070030F53D0030F63D0030F73DAD
:100EF000771C7B2F7C2F982F7408F8007508F90059
:100F00007608FA007708FB000130FC00FB37FA0C8A
:100F1000F90CF80CFC0B862F7B08F7007A08F6001A
:100F20007908F5007808F4000130A5070030A63DE7
:100F30002608803AF80080307802031DA12FFF3088
:100F40002502031CA42FA52FB22FFF302000A500DF
:100F50000030A6000030F7000030F6000030F50049
:100F60000030F40020002608803AF8008030780233
:100F7000031DBC2F013025020318BF2FC02FCC2F1B
:100F80002000A501A6010030F7000030F600003077
:100F9000F5000030F400A40120002508F8007808CE
:100FA000AB002B1CD42FD52FD72FF617DB2F7F307C
:100FB000F8007808F6052B36F8007808F7002408C2
:100FC000F8007808F704A02E080080310B20873144
:100FD000D90080310C208731DA0080310D20873133
:100FE000DB0080310E208731DC004230840000308D
:100FF00085001730803115208731200084316B2C1B
:10100000013400340A34003464340034E8340334E6
:10101000103427346C346F346134643420346334D6
:1010200065346C346C342034733465347434203457
:1010300075347034003449346E346934743469342E
:1010400061346C3469347A34653400342534643462
:0A10500020346734003420340034EB
:020000040001F9
:04000E00E43FFF1EAE
:00000001FF
