:08000000803102288731E42F52
:10005E0022000C140800163021009700080000340E
:10006E0040341434543420000C0C890C013908002F
:10007E00FE30F000700822008C0508007030210060
:10008E009900980122009601080024001E151E19E1
:10009E00512852284E2808008031A5208031803109
:1000AE004520803180313220803108008031672038
:1000BE00803124001E141E18652866286228080048
:1000CE0024001E081F39031D6D286E2867281C1971
:1000DE0071287228672808000830803191208031FD
:1000EE000830F20072082000D7000630890B7D28F8
:1000FE0000320800F0007008240099001C188828AF
:10010E00892885281E1B8C288D28892880316720F8
:10011E0080310800F10080315D2080317E308031E9
:10012E0081208031710880318120803180314C20D6
:10013E0080310630890BA1280032080022008C0184
:10014E008D01FF3021008C00FF308D00FE3023002A
:10015E008D001F308C0024008D018C01210095171D
:10016E0022009D019E010800CE287808840079089F
:10017E0085000008FA007A08FB000130F80700300D
:10018E00F93DF201F20A7B0881312E218031780887
:10019E008400790885001200031DD628D728BC28B4
:1001AE0008002000A4005B08A3005A08A20059080A
:1001BE00A1005808A00003307802031CE728E828A5
:1001CE00EA28F801F80A7808203E8600870101081F
:1001DE0024078038F9007908A500F201250881313D
:1001EE002E2180310800780879040319FF28002990
:1001FE002929FD01FD0A0C290130F835F90D890B6D
:10020E0004290130FC007C08FD07F91F0F29102975
:10021E00032979087B02031D162978087A02031C2C
:10022E0019291A291E297808FA027908FB3B013090
:10023E00F936F80C890B1F290130FD02031D282900
:10024E00292910297B08F9007A08F8000800F50022
:10025E007508F039200057047204F3007308F60095
:10026E007508F3000330F335FF3E031D3A2973354D
:10027E00F03957047204F4007408F70076088031E0
:10028E0091208131760804388031912081317608B1
:10029E00FB398031912081314230890B5429003253
:1002AE007708803191208131770804388031912090
:1002BE0081317708FB398031912081310800F501B9
:1002CE00F6017008710403196D296E299D29F70135
:1002DE00F70A7A290130F035F10D890B72290130B8
:1002EE00F4007408F707F11F7D297E29712901306A
:1002FE00F535F60D890B7F2971087302031D8929C7
:10030E0070087202031C8C298D2992297008F20242
:10031E007108F33B75140130F136F00C890B9329FB
:10032E000130F702031D9C299D297E297608F100D4
:10033E007508F000080020004F082D02B10050088B
:10034E002E3BB20051082F3BB3005208303BB40095
:10035E003408F3003308F2003208F1003108F000DF
:10036E00013083310423813173082000B8007208F4
:10037E00B7007108B6007008B5004530F3003D3087
:10038E00F200B030F1000030F0003808F700370806
:10039E00F6003608F5003508F40086313026813136
:1003AE0073082000B8007208B7007108B600700814
:1003BE00B5003808B0003708AF003608AE00350873
:1003CE00AD000800803153208131243024008D008F
:1003DE002100951323008C018D01043021008C0027
:1003EE0022008C018D01133024009A0028309D00CC
:1003FE009E019C01853144258131803173208131EC
:10040E00F80100308031D82081311530F800883065
:10041E00F9008031BB2081310B302000BA0026302C
:10042E00B9005D30890B192AB90B192ABA0B192A92
:10043E000032F80103308031D82081310A30F800C3
:10044E008830F9008031BB20813132308331B023C6
:10045E00813120002908D2002808D1002708D000B9
:10046E002608CF0008308331B023813120002908BF
:10047E00D6002808D5002708D4002608D300560831
:10048E00B0005508AF005408AE005308AD008131DE
:10049E00A221813120003008CE002F08CD002E0879
:1004AE00CC002D08CB001030A0008830A1004E08E3
:1004BE00A5004D08A4004C08A3004B08A2003B3039
:1004CE0084316B2481313B30F8000030F9008031EB
:1004DE00BB208131392A803102282000A101F31F6F
:1004EE00792A7A2A872AF009F109F209F309F00A22
:1004FE000319F10A0319F20A0319F30AA101A10A59
:10050E00F71F8A2A8B2A9A2AF409F509F609F709A0
:10051E00F40A0319F50A0319F60A0319F70A01304A
:10052E00F8007808A1060030A5000030A4000030C5
:10053E00A3000030A2007308720471047004031942
:10054E00A92AAA2AEB2AA001A00AB82A0130F0355E
:10055E00F10DF20DF30D890BAE2A0130F80078087B
:10056E00A007F31FBB2ABC2AAD2A0130A235A30D6A
:10057E00A40DA50D890BBD2A73087702031DD12A80
:10058E0072087602031DD12A71087502031DD12A45
:10059E0070087402031CD42AD52ADE2A7008F402CD
:1005AE007108F53B7208F63B7308F73B22140130D5
:1005BE00F336F20CF10CF00C890BDF2A0130A0029D
:1005CE00031DEA2AEB2ABC2A21080319EF2AF02A76
:1005DE00FB2AA209A309A409A509A20A0319A30AC1
:1005EE000319A40A0319A50A2508F3002408F2002A
:1005FE002308F1002208F0000800F800780803191B
:10060E00092B0A2B1E2BF31F0D2B0E2B1E2B7009E5
:10061E00FA007109FB007209FC007309FD00FA0A69
:10062E000319FB0A0319FC0A0319FD0A262B73088A
:10063E00FD007208FC007108FB007008FA007308D8
:10064E00720471047004031D2D2B2E2B372B0030DA
:10065E00F3000030F2000030F1000030F000AF2B5C
:10066E009630F4007408F900472B0130F40074083A
:10067E00F9070130FD36FC0CFB0CFA0C890B412BF3
:10068E00FE307D05031D4C2B4D2B3C2B612B013079
:10069E00F4007408F9070130FA070030FB3D003012
:1006AE00FC3D0030FD3D0130FD36FC0CFB0CFA0C20
:1006BE00890B5B2BFF307D05031D662B672B4E2BA5
:1006CE00712B0130F9020130FA35FB0DFC0DFD0DD9
:1006DE00890B6B2BFC1B742B752B7B2B0230790239
:1006EE0003187A2B7B2B682B79187E2B7F2B872B6D
:1006FE00FF30FA05FF30FB057F30FC05FF30FD05AE
:10070E000310F90C7908F400F501F601F701183021
:10071E00F435F50DF60DF70D890B8F2B7408FA04D1
:10072E007508FB047608FC047708FD0478080319A5
:10073E00A12BA22BA72BF31FA52BA62BA72BFD17A7
:10074E007D08F3007C08F2007B08F1007A08F000C7
:10075E0008002000AF0080313F20833100302000A0
:10076E00B3000030B2000030B1000030B0000030F5
:10077E00AD000030AC000030AB000030AA00AE017E
:10078E003B2C80313A208331003A0319CF2BD02BEA
:10079E00C82B80313A208331013A0319D72BD82B3D
:1007AE00D02B0630890BD92B00322000B40101303A
:1007BE00B035B10DB20DB30D890BDF2B80312F206B
:1007CE0083310630890BE92B003280313F20833193
:1007DE0080313A208331F900FA01FB01FC017908DE
:1007EE002000B0077A08B13D7B08B23D7C08B33DCE
:1007FE000630890B002C00320130F90079082000F8
:10080E00B40718303402031C0D2C0E2CDE2BB40151
:10081E0080312F2083310630890B132C003280312A
:10082E003F2083310630890B1A2C00320130F9003B
:10083E0079082000B40734080319262C272C0F2C16
:10084E003008AA073108AB3D3208AC3D3308AD3D48
:10085E000030B3000030B2000030B1000030B00004
:10086E000130F9007908AE072F082E02031C402C28
:10087E00412CC82B2F08F900FA01FB01FC017C0862
:10088E00F3007B08F2007A08F1007908F0002D08D9
:10089E00F7002C08F6002B08F5002A08F400823128
:1008AE007422833173082000B3007208B2007108FD
:1008BE00B1007008B0003308A9003208A800310852
:1008CE00A7003008A60008002000AF002230A600C6
:1008DE002608AA002B2D253030060319772C782CEC
:1008EE00842C3008A6002F08860087012608810078
:1008FE000130A6002608AF072B2DAB012108A7005B
:10090E002008A600A00A0319A10A260884002708B9
:10091E0085000008B000003A03193F2D643A031910
:10092E009C2C0D3A03199C2C2B2D2A08860087012E
:10093E00403FAD00413FAE000230A6002608AA0798
:10094E00AE1FAA2CAB2CB42C0330A6002608AB0489
:10095E00AD09AE09AD0A0319AE0AB001B00A3008EE
:10096E00A600A701A635A70D003026078400883003
:10097E00273D8500003FA800013FA90029082E024F
:10098E00031DCB2C28082D020318CE2CCF2CD02CD7
:10099E00DA2C0130A6002608B00705303006031DFC
:1009AE00D92CDA2CB62C2B0803390319DF2CE02CAA
:1009BE00EB2C2D30A6002F0886008701260881001B
:1009CE000130A6002608AF073008A6002608AC00A6
:1009DE00222D0A30F8000030F9002C08A600A701DD
:1009EE00A635A70D0030260784008830273D8500E8
:1009FE00003FF000013FF1002E08F3002D08F20039
:100A0E008131662184317108FB007008FA00803153
:100A1E00FA2084317808303E2000A8002808B00063
:100A2E003008A6002F0886008701260881000130B5
:100A3E00A6002608AF07FF30A6002608AC072C0A32
:100A4E00031D2A2D2B2DF02C2108A7002008A6000F
:100A5E00A00A0319A10A26088400270885000008A9
:100A6E00A8002808B0003008031D3E2D3F2D722C23
:100A7E002F0886008701810108000530F3000F3032
:100A8E00F200F130890B492DF20B492DF30B492D54
:100A9E00000030308031912085313430803191200A
:100AAE00853130308031912085310D30F200FC30AF
:100ABE00890B5F2DF20B5F2D303080319120853107
:100ACE003430803191208531303080319120853124
:100ADE000D30F200FC30890B722DF20B722D30307E
:100AEE008031912085313430803191208531303004
:100AFE00803191208531C830890B832D2030803193
:100B0E009120853124308031912085312030803103
:100B1E00912085310630890B922D003220308031A4
:100B2E0091208531243080319120853120308031E3
:100B3E00912085314230890BA22D003280308031D8
:100B4E009120853184308031912085318030803103
:100B5E0091208531003080319120853104308031F3
:100B6E009120853100308031912085314230890BC2
:100B7E00BE2D0032C030803191208531C43080319D
:100B8E0091208531C0308031912085310030803107
:100B9E0091208531043080319120853100308031B3
:100BAE00912085314230890BDA2D003210308031A0
:100BBE009120853114308031912085311030803173
:100BCE00912085310D30F200FC30890BEC2DF20BAB
:100BDE00EC2D003080319120853104308031912010
:100BEE00853100308031912085314230890BFD2DC9
:100BFE000032603080319120853164308031912017
:100C0E0085316030803191208531003080319120E6
:100C1E008531043080319120853100308031912032
:100C2E0085314230890B192E0032203080319120CF
:100C3E0085312430803191208531203080319120D2
:100C4E0085310830F200CA30890B2B2EF20B2B2E79
:100C5E00080077088039F80078082000A40077355E
:100C6E00F8007808AB00F61F3D2E3E2E3F2E2B14BB
:100C7E002B080319432E442E542E2B0A031D482EE7
:100C8E00492E512E0030F7000030F6000030F500EE
:100C9E000030F400F617F7015C2E0030F70000303C
:100CAE00F6000030F5000030F40073088039F800CB
:100CBE007808A4067335F8007808AC00F21F682E89
:100CCE00692E6A2E2C142C0803196E2E6F2E7F2E71
:100CDE002C0A031D732E742E7C2E0030F300003070
:100CEE00F2000030F1000030F000F217F301872E11
:100CFE000030F3000030F2000030F1000030F00060
:100D0E007308720471047004031D8E2E8F2EA82E8C
:100D1E000030F7000030F6000030F5000030F4002F
:100D2E008030F6047F30F7042408F8007808F704C2
:100D3E007708F3007608F2007508F1007408F000E9
:100D4E00E32F2B08031DAC2EAD2EB62E0030F30074
:100D5E000030F2000030F1000030F000E32F2B08DD
:100D6E00F800F9017908FB002C087802FA00031C40
:100D7E00FB037A087F3EA50000307B3DA600770876
:100D8E00A3007608A2007508A1007408A000003028
:100D9E00F7000030F6000030F5000030F4000030AF
:100DAE00AA000030A9000030A8000030A700AC0156
:100DBE001E2F2C080319E42EE52EFF2E0130A03530
:100DCE00A10DA20DA30D890BE62E0130F435F50D04
:100DDE00F60DF70D890BED2EAA1FF62EF72EF82E17
:100DEE0074140130A735A80DA90DAA0D890BF92E83
:100DFE0073082302031D0D2F72082202031D0D2FEF
:100E0E0071082102031D0D2F70082002031C102FE4
:100E1E00112F1A2F2A177008A0027108A13B720811
:100E2E00A23B7308A33B0130F8007808AC071A30D8
:100E3E002C02031C232F242FE02E2308220421042E
:100E4E00200403192B2F2C2F452F2714452F01304B
:100E5E00F435F50DF60DF70D890B2F2FAA1F382F30
:100E6E00392F3A2F74140130A735A80DA90DAA0DEC
:100E7E00890B3B2FFF30A507FF30A63DF61F482FED
:100E8E00492F2E2FAC01AA1F4D2F4E2F6A2FFF3048
:100E9E002705F800FF302805F900FF302905FA0074
:100EAE007F302A05FB007B087A0479047804031945
:100EBE00612F622F652FAC01AC0A6A2F741C682F4C
:100ECE00692F6A2F622F2C0803196E2F6F2F972F01
:100EDE000130F4070030F53D0030F63D0030F73DAF
:100EEE00771C7A2F7B2F972F7408F8007508F9005E
:100EFE007608FA007708FB000130FC00FB37FA0C8D
:100F0E00F90CF80CFC0B852F7B08F7007A08F6001D
:100F1E007908F5007808F4000130A5070030A63DE9
:100F2E002608803AF80080307802031DA02FFF308B
:100F3E002502031CA32FA42FB12FFF302000A500E4
:100F4E000030A6000030F7000030F6000030F5004B
:100F5E000030F40020002608803AF8008030780235
:100F6E00031DBB2F013025020318BE2FBF2FCB2F21
:100F7E002000A501A6010030F7000030F600003079
:100F8E00F5000030F400A40120002508F8007808D0
:100F9E00AB002B1CD32FD42FD62FF617DA2F7F3082
:100FAE00F8007808F6052B36F8007808F7002408C4
:100FBE00F8007808F7049F2E08008031362087311C
:100FCE00D800803137208731D900803138208731E1
:100FDE00DA00803139208731DB00CF01D001D10119
:100FEE00D201D301D401D501D601D7012000813120
:100FFE00E929013400340A34003464340034E8340E
:10100E00033410342734313432343A3430343034FB
:10101E000034253464342034673400344834493481
:08102E005A3400342034003470
:020000040001F9
:04000E00E43FFF1EAE
:00000001FF
