:08000000803102288731FD2F39
:10075A000030080022000C08080022000C080800DB
:10076A001630210097000800703021009900980186
:10077A002200960108008331CA2383318331B923C9
:10078A0083318331B5238331080022008C018D0126
:10079A00FF3021008C00FF308D00FE3023008D00D9
:1007AA001F308C0024008D018C0121009517220036
:1007BA009D019E0108008331C02383313230853187
:1007CA008E25833120002908BC002808BB00270891
:1007DA00BA002608B900083085318E2583312000F9
:1007EA002908C0002808BF002708BE002608BD0047
:1007FA004008B0003F08AF003E08AE003D08AD001B
:10080A0084310B248331F02B8031022820003908EF
:10081A002D02B1003A082E3BB2003B082F3BB30031
:10082A003C08303BB4003408F3003308F2003208C5
:10083A00F1003108F00001308431E2248431730878
:10084A002000B8007208B7007108B6007008B50039
:10085A004530F3003D30F200B030F1000030F000D6
:10086A003808F7003708F6003608F5003508F400AE
:10087A0086314926843173082000B8007208B7000F
:10088A007108B6007008B5003808B0003708AF0024
:10089A003608AE003508AD0008002000A101F31F9C
:1008AA00572C582C652CF009F109F209F309F00AC2
:1008BA000319F10A0319F20A0319F30AA101A10A99
:1008CA00F71F682C692C782CF409F509F609F70941
:1008DA00F40A0319F50A0319F60A0319F70A01308B
:1008EA00F8007808A1060030A5000030A400003006
:1008FA00A3000030A2007308720471047004031983
:10090A00872C882CC92CA001A00A962C0130F0351E
:10091A00F10DF20DF30D890B8C2C0130F8007808DB
:10092A00A007F31F992C9A2C8B2C0130A235A30D0A
:10093A00A40DA50D890B9B2C73087702031DAF2C00
:10094A0072087602031DAF2C71087502031DAF2CC5
:10095A0070087402031CB22CB32CBC2C7008F4026D
:10096A007108F53B7208F63B7308F73B2214013015
:10097A00F336F20CF10CF00C890BBD2C0130A002FD
:10098A00031DC82CC92C9A2C21080319CD2CCE2C56
:10099A00D92CA209A309A409A509A20A0319A30A21
:1009AA000319A40A0319A50A2508F3002408F2006A
:1009BA002308F1002208F0000800F800780803195B
:1009CA00E72CE82CFC2CF31FEB2CEC2CFC2C7009EC
:1009DA00FA007109FB007209FC007309FD00FA0AAA
:1009EA000319FB0A0319FC0A0319FD0A042D7308EB
:1009FA00FD007208FC007108FB007008FA00730819
:100A0A00720471047004031D0B2D0C2D152D00307A
:100A1A00F3000030F2000030F1000030F0008D2DBC
:100A2A009630F4007408F900252D0130F40074089A
:100A3A00F9070130FD36FC0CFB0CFA0C890B1F2D53
:100A4A00FE307D05031D2A2D2B2D1A2D3F2D013039
:100A5A00F4007408F9070130FA070030FB3D003052
:100A6A00FC3D0030FD3D0130FD36FC0CFB0CFA0C60
:100A7A00890B392DFF307D05031D442D452D2C2D65
:100A8A004F2D0130F9020130FA35FB0DFC0DFD0D39
:100A9A00890B492DFC1B522D532D592D02307902F9
:100AAA000318582D592D462D79185C2D5D2D652D6D
:100ABA00FF30FA05FF30FB057F30FC05FF30FD05EE
:100ACA000310F90C7908F400F501F601F701183062
:100ADA00F435F50DF60DF70D890B6D2D7408FA0432
:100AEA007508FB047608FC047708FD0478080319E6
:100AFA007F2D802D852DF31F832D842D852DFD17A8
:100B0A007D08F3007C08F2007B08F1007A08F00007
:100B1A0008002000AF008331B22385310030200065
:100B2A00B3000030B2000030B1000030B000003035
:100B3A00AD000030AC000030AB000030AA00AE01BE
:100B4A00192E8331AD238531003A0319AD2DAE2D0F
:100B5A00A62D8331AD238531013A0319B52DB62D62
:100B6A00AE2D0630890BB72D00322000B4010130BA
:100B7A00B035B10DB20DB30D890BBD2D8331AF2345
:100B8A0085310630890BC72D00328331B223853176
:100B9A008331AD238531F900FA01FB01FC017908A3
:100BAA002000B0077A08B13D7B08B23D7C08B33D0E
:100BBA000630890BDE2D00320130F9007908200059
:100BCA00B40718303402031CEB2DEC2DBC2DB401F4
:100BDA008331AF2385310630890BF12D0032833101
:100BEA00B22385310630890BF82D00320130F90025
:100BFA0079082000B40734080319042E052EED2DB8
:100C0A003008AA073108AB3D3208AC3D3308AD3D88
:100C1A000030B3000030B2000030B1000030B00044
:100C2A000130F9007908AE072F082E02031C1E2E88
:100C3A001F2EA62D2F08F900FA01FB01FC017C08E2
:100C4A00F3007B08F2007A08F1007908F0002D0819
:100C5A00F7002C08F6002B08F5002A08F400843166
:100C6A005224853173082000B3007208B20071085B
:100C7A00B1007008B0003308A9003208A800310892
:100C8A00A7003008A600080077088039F80078081D
:100C9A002000A4007735F8007808AB00F61F562E1E
:100CAA00572E582E2B142B0803195C2E5D2E6D2EF1
:100CBA002B0A031D612E622E6A2E0030F7000030C7
:100CCA00F6000030F5000030F400F617F701752E33
:100CDA000030F7000030F6000030F5000030F40074
:100CEA0073088039F8007808A4067335F800780884
:100CFA00AC00F21F812E822E832E2C142C0803198D
:100D0A00872E882E982E2C0A031D8C2E8D2E952E1A
:100D1A000030F3000030F2000030F1000030F00043
:100D2A00F217F301A02E0030F3000030F200003079
:100D3A00F1000030F0007308720471047004031D9E
:100D4A00A72EA82EC12E0030F7000030F600003082
:100D5A00F5000030F4008030F6047F30F7042408F0
:100D6A00F8007808F7047708F3007608F2007508A7
:100D7A00F1007408F000FC2F2B08031DC52EC62EA7
:100D8A00CF2E0030F3000030F2000030F1000030C6
:100D9A00F000FC2F2B08F800F9017908FB002C0859
:100DAA007802FA00031CFB037A087F3EA500003094
:100DBA007B3DA6007708A3007608A2007508A1006B
:100DCA007408A0000030F7000030F6000030F5008B
:100DDA000030F4000030AA000030A9000030A8005A
:100DEA000030A700AC01372F2C080319FD2EFE2E68
:100DFA00182F0130A035A10DA20DA30D890BFF2ECE
:100E0A000130F435F50DF60DF70D890B062FAA1FE3
:100E1A000F2F102F112F74140130A735A80DA90D0B
:100E2A00AA0D890B122F73082302031D262F72089D
:100E3A002202031D262F71082102031D262F700886
:100E4A002002031C292F2A2F332F2A177008A002E9
:100E5A007108A13B7208A23B7308A33B0130F8005A
:100E6A007808AC071A302C02031C3C2F3D2FF92EB0
:100E7A0023082204210420040319442F452F5E2F3E
:100E8A0027145E2F0130F435F50DF60DF70D890B99
:100E9A00482FAA1F512F522F532F74140130A735F0
:100EAA00A80DA90DAA0D890B542FFF30A507FF30F5
:100EBA00A63DF61F612F622F472FAC01AA1F662F8E
:100ECA00672F832FFF302705F800FF302805F90028
:100EDA00FF302905FA007F302A05FB007B087A04D7
:100EEA007904780403197A2F7B2F7E2FAC01AC0A80
:100EFA00832F741C812F822F832F7B2F2C08031999
:100F0A00872F882FB02F0130F4070030F53D0030CD
:100F1A00F63D0030F73D771C932F942FB02F7408BD
:100F2A00F8007508F9007608FA007708FB00013026
:100F3A00FC00FB37FA0CF90CF80CFC0B9E2F7B0813
:100F4A00F7007A08F6007908F5007808F40001300D
:100F5A00A5070030A63D2608803AF80080307802BE
:100F6A00031DB92FFF302502031CBC2FBD2FCA2F2A
:100F7A00FF302000A5000030A6000030F700003046
:100F8A00F6000030F5000030F40020002608803A10
:100F9A00F80080307802031DD42F0130250203188F
:100FAA00D72FD82FE42F2000A501A6010030F70083
:100FBA000030F6000030F5000030F400A4012000F3
:100FCA002508F8007808AB002B1CEC2FED2FEF2F2B
:100FDA00F617F32F7F30F8007808F6052B36F8005D
:100FEA007808F7002408F8007808F704B82E0800F3
:060FFA0020008331E02B12
:020000040001F9
:04000E00E43FFF1EAE
:00000001FF
