:10000000803102288731E22F0034403414345434D4
:10001000F1009D319C2580314E309031002080319F
:100020007108903100208031883102208031063003
:10003000890B18280032080077088039F800780802
:100040002000A4007735F8007808AB00F61F2928B7
:100050002A282B282B142B0803192F283028402856
:100060002B0A031D342835283D280030F7000030C6
:10007000F6000030F5000030F400F617F7014828CC
:100080000030F7000030F6000030F5000030F400DA
:1000900073088039F8007808A4067335F8007808EA
:1000A000AC00F21F5428552856282C142C0803198C
:1000B0005A285B286B282C0A031D5F2860286828B3
:1000C0000030F3000030F2000030F1000030F000AA
:1000D000F217F30173280030F3000030F200003013
:1000E000F1000030F0007308720471047004031D05
:1000F0007A287B2894280030F7000030F600003082
:10010000F5000030F4008030F6047F30F704240856
:10011000F8007808F7047708F3007608F20075080D
:10012000F1007408F000CF292B08031D98289928A6
:10013000A2280030F3000030F2000030F10000305F
:10014000F000CF292B08F800F9017908FB002C08F2
:100150007802FA00031CFB037A087F3EA5000030FA
:100160007B3DA6007708A3007608A2007508A100D1
:100170007408A0000030F7000030F6000030F500F1
:100180000030F4000030AA000030A9000030A800C0
:100190000030A700AC010A292C080319D028D12867
:1001A000EB280130A035A10DA20DA30D890BD2289B
:1001B0000130F435F50DF60DF70D890BD928AA1F7E
:1001C000E228E328E42874140130A735A80DA90D0E
:1001D000AA0D890BE52873082302031DF92872086C
:1001E0002202031DF92871082102031DF928700855
:1001F0002002031CFC28FD2806292A177008A002EB
:100200007108A13B7208A23B7308A33B0130F800C0
:100210007808AC071A302C02031C0F291029CC28AF
:10022000230822042104200403191729182931293D
:10023000271431290130F435F50DF60DF70D890B32
:100240001B29AA1F24292529262974140130A73522
:10025000A80DA90DAA0D890B2729FF30A507FF308E
:10026000A63DF61F342935291A29AC01AA1F3929C0
:100270003A295629FF302705F800FF302805F900F4
:10028000FF302905FA007F302A05FB007B087A043D
:100290007904780403194D294E295129AC01AC0A7F
:1002A0005629741C5429552956294E292C080319FE
:1002B0005A295B2983290130F4070030F53D0030CD
:1002C000F63D0030F73D771C6629672983297408BD
:1002D000F8007508F9007608FA007708FB0001308D
:1002E000FC00FB37FA0CF90CF80CFC0B71297B08AD
:1002F000F7007A08F6007908F5007808F400013074
:10030000A5070030A63D2608803AF8008030780224
:10031000031D8C29FF302502031C8F2990299D295C
:10032000FF302000A5000030A6000030F7000030AC
:10033000F6000030F5000030F40020002608803A76
:10034000F80080307802031DA72901302502031828
:10035000AA29AB29B7292000A501A6010030F70082
:100360000030F6000030F5000030F400A401200059
:100370002508F8007808AB002B1CBF29C029C2292A
:10038000F617C6297F30F8007808F6052B36F800F6
:100390007808F7002408F8007808F7048B2808008C
:1003A0002100C300A230A6002608B000C92F2530C6
:1003B00046060319DC29DD29E9294608A600430879
:1003C00086008701260881000130A6002608C307A1
:1003D000C92FB701B801B501B60120088400210872
:1003E000850000089D31DD258131031CF829F9299C
:1003F0002C2A2100B701B8010A30F0000030F100CA
:1004000021003808F3003708F2009E310C268131B4
:1004100071082100B8007008B70020088400210886
:1004200085000008D03EA600FF3003180030A7006A
:100430002608B7072708B83D0130A0070030A13DC6
:10044000200884002108850000089D31DD258131C8
:1004500003182B2A2C2AFC292100200884002108BB
:10046000850012002E3A031D362A372A702A3617C5
:100470000130A0070030A13DC401C501632A0A3044
:10048000F0000030F10021004508F3004408F200BC
:100490009E310C26813171082100C5007008C4000E
:1004A00020088400210885000008D03EA600FF3007
:1004B00003180030A7002608C4072708C53D0130EF
:1004C000A0070030A13D2008840021088500000815
:1004D0009D31DD25813103186E2A6F2A3F2A762A45
:1004E000C401C5013616762A36158B2A210021084B
:1004F000A7002008A600A00A0319A10A2608840064
:10050000270885000008C600003A0319DD2F663A67
:100510000319742AC92F00303505A60007303605A7
:10052000A700260827040319962A972A182F361E93
:100530009A2A9B2A9F2A0630C4000030C500300842
:1005400086008701403FBF00413FC000423FC100DD
:10055000433FC2000430A6002608B0074208F3005B
:100560004108F2004008F1003F08F0000030F700B9
:100570000030F6000030F5000030F4009131E02149
:1005800081310318C42AC52ADE2A21004208F3005B
:100590004108F2004008F1003F08F0009D31A62517
:1005A000813173082100C2007208C1007108C000C7
:1005B0007008BF000330B5040030B6042100BD014F
:1005C000BE014208F3004108F2004008F1003F0874
:1005D000F0000030F7000030F6000030F500003089
:1005E000F4009031102081310318F72AF82AAF2B3C
:1005F00003102100410D420D823EBD00FF30031863
:100600000030BE00FF30BD07FF30BE3D0330F000BC
:100610000030F1003E08F3003D08F2009E310C2648
:10062000813171082100BE007008BD000A30F7005A
:100630000030F8003E08FA003D08F90091310B2126
:10064000813178082100BE007708BD00BE1F292B2C
:100650002A2B2E2BFF30BD07FF30BE3D3D03FF3A56
:100660008D3184258131200041082100BC0020000B
:1006700040082100BB0020003F082100BA002000F4
:100680003E082100B90042082000A70021004108CF
:100690002000A600210040082000A50021003F08FE
:1006A0002000A40021003C082000AB0021003B08F2
:1006B0002000AA0021003A082000A90021003908E2
:1006C0002000A8008B312D23813120002708210034
:1006D000BC00200026082100BB00200025082100C6
:1006E000BA00200024082100B9003C08F3003B08B0
:1006F000F2003A08F1003908F0003F30F70080308E
:10070000F6000030F5000030F4009131E021813135
:1007100003188B2B8C2B922BFF302100BD07FF3051
:10072000BE3DAF2B21003C08F3003B08F2003A0825
:10073000F1003908F0004130F7002030F6000030B9
:10074000F5000030F4009131E0218131031CA92B28
:10075000AA2BAF2B01302100BD070030BE3D210088
:100760004508803AA60080302602031DB92B0D30C3
:1007700044020318BC2BBD2BEE2B210044089631FC
:100780007826813120004108D4004008D3003F087A
:10079000D2003E08D100210042082000D8002100EC
:1007A00041082000D700210040082000D600210089
:1007B0003F082000D5008831F52081312000540801
:1007C0002100C200200053082100C100200052086F
:1007D0002100C000200051082100BF0021003E0878
:1007E000803AA60080302602031DF82B0A303D0215
:1007F0000318FB2BFC2B3E2C21004208F300410880
:10080000F2004008F1003F08F0000030F70000302F
:10081000F6000030F5000030F400903110208131F6
:100820000318132C142C9A2C210042082000D60007
:10083000210041082000D500210040082000D400FC
:1008400021003F082000D30091316B21813120002D
:100850005608550454045304031D2F2C302C9A2C95
:1008600021003E08803AA60080302602031D3A2C63
:1008700002303D02031C3D2C3E2C9A2C21003C08EA
:10088000F3003B08F2003A08F1003908F00040306C
:10089000F7008930F6007030F5005F30F4009131D8
:1008A000E02181310318552C562C5C2CF7302100A7
:1008B000BD07FF30BE3D612CF8302100BD07FF3081
:1008C000BE3D3D088D318425813120004108210045
:1008D000BC00200040082100BB0020003F08210090
:1008E000BA0020003E082100B9004208F300410888
:1008F000F2004008F1003F08F0003C08F7003B0818
:10090000F6003A08F5003908F4009331A623813146
:1009100073082100B4007208B3007108B2007008B7
:10092000B1000030C2000030C1000030C000003013
:10093000BF00F72C210042082000D600210041080A
:100940002000D500210040082000D40021003F08ED
:100950002000D30091316B21813120005608210005
:10096000B400200055082100B300200054082100E5
:10097000B200200053082100B1003408F30033080E
:10098000F2003208F1003108F00000309231FA2212
:10099000813173082000E8007208E7007108E60062
:1009A0007008E500210042082000EC002100410809
:1009B0002000EB00210040082000EA0021003F0851
:1009C0002000E9009E312B2681312000680821009B
:1009D000C200200067082100C10020006608210035
:1009E000C000200065082100BF00BD01BE01C60196
:1009F000C60A4608A600A701A635A70DA635A70D6D
:100A0000683026078400A030273D8500003FA800FD
:100A1000013FA900023FAA00033FAB002B083402AC
:100A2000031D1C2D2A083302031D1C2D2908320228
:100A3000031D1C2D2808310203181F2D202D212DE8
:100A40002B2D0130A6002608C6070A304606031DD6
:100A50002A2D2B2DF92C46084407A600450803181B
:100A6000450AA7003D082607A8003E08273DA90023
:100A70002808B7022908B83B440845040319412D4A
:100A8000422D462DFF30B707FF30B83D0330350506
:100A9000A60000303605A700260827040319512DAB
:100AA000522D642DFF30B707FF30B83D642D203044
:100AB0002100A60043088600870126088100013036
:100AC000A6002608C307522D3808803AA6008030B9
:100AD0002602031D6D2D013037020318702D712D74
:100AE000572D033021003505A60000303605A7003C
:100AF0002608270403197D2D7E2DD82D2D30A60024
:100B0000430886008701260881000130A6002608D8
:100B1000C307D82D4608A600A701A635A70DA63500
:100B2000A70D683026078400A030273D8500003FD0
:100B3000F000013FF100023FF200033FF3003408F0
:100B4000F7003308F6003208F5003108F400903160
:100B5000B120813173082100BC007208BB0071080C
:100B6000BA007008B9000030F3000030F200003025
:100B7000F1000A30F0003C08F7003B08F6003A08A4
:100B8000F5003908F4009F3168278131730821008E
:100B9000BC007208BB007108BA007008B9003908BF
:100BA000303EA60043088600870126088100852D77
:100BB0000130C602460A031DDE2DDF2D8A2DF02DE1
:100BC00030302100A60043088600870126088100F6
:100BD0000130A6002608C307FF30BD07FF30BE3D29
:100BE0003E08803AA60080302602031DF92D013010
:100BF0003D020318FC2DFD2DE02D21004508803A13
:100C0000A60080302602031D072E09304402031C73
:100C10000A2E0B2E112E08302100A6002608C60031
:100C2000162E21004408A6002608C6004608A60085
:100C3000A7012608C4022708C53B46080319212E30
:100C4000222E2D2E2E30A60043088600870126086E
:100C500081000130A6002608C30746088D3184258F
:100C60008131200041082100AF0020004008210010
:100C7000AE0020003F082100AD0020003E0821000A
:100C8000AC002F082000AB0021002E082000AA0095
:100C900021002D082000A90021002C082000A80018
:100CA000210042082000A700210041082000A600E2
:100CB000210040082000A50021003F082000A400DA
:100CC0008B312D23813120002708D6002608D5003E
:100CD0002508D4002408D30091316B2181312000F4
:100CE00056082100B400200055082100B300200060
:100CF00054082100B200200053082100B100FA2E50
:100D00004608A600A701A635A70DA635A70D683091
:100D100026078400A030273D8500003FF000013FFA
:100D2000F100023FF200033FF3003408F7003308FC
:100D3000F6003208F5003108F4009031B12081311D
:100D400073082100BC007208BB007108BA0070086B
:100D5000B9000030F3000030F2000030F1000A303A
:100D6000F0003C08F7003B08F6003A08F5003908A7
:100D7000F4009F316827813173082100BC0072089C
:100D8000BB007108BA007008B9003908303EA600EF
:100D9000430886008701260881000130A600260846
:100DA000C3074608A600A701A635A70DA635A70DBF
:100DB000683026078400A030273D8500003FF00002
:100DC000013FF100023FF200033FF3003408F70057
:100DD0003308F6003208F5003108F4009F31682727
:100DE000813173082100B4007208B3007108B200A9
:100DF0007008B1000130C602460A031D002F012F02
:100E0000802E112F3030A600430886008701260867
:100E100081000130A6002608C307FF30C407FF3059
:100E2000C53D44084504031D162F172F022FC92F57
:100E300044084504031D1D2F1E2F2A2F3408330498
:100E400032043104031D252F262F2A2F0130C40719
:100E50000030C53D4508803A803C031D312F4408D1
:100E600046020318342F352F3B2F21004408A600DB
:100E70002608C600512F21004508803AA600803080
:100E80002602031D452F460844020318482F492F08
:100E9000512F21004608A600A7012608C4002708F4
:100EA000C5002100370838040319572F582F682F21
:100EB00003303505A60000303605A70026082704B4
:100EC0000319632F642F682FFF30B707FF30B83D39
:100ED000361F6B2F6C2F832F4508803AA6003808E9
:100EE000803A2602031D762F370844020318792F13
:100EF0007A2F802F21004408B7024508B83B832F82
:100F00002100B701B8013808803A803C031D8A2FC0
:100F10003708460203188D2F8E2F972F2100460881
:100F2000A600A7012608B7022708B83B9A2F210080
:100F3000B701B8013708380403199F2FA02FB52F28
:100F40002030A60043088600870126088100013072
:100F5000A6002608C307FF30B707FF30B83D3708A3
:100F60003804031DB42FB52FA02F03303505A6007C
:100F700000303605A700260827040319C02FC12F0B
:100F8000C92F2D30A600430886008701260881005E
:100F9000E4292108A7002008A600A00A0319A10A35
:100FA00026088400270885000008A8002808C60035
:100FB0004608031DDC2FDD2FD72943088600870153
:100FC000810108002100803104208731E300803155
:100FD00005208731E400803106208731E50080312B
:100FE00007208731E6002000EF01CB30840000307D
:100FF000850018309D318525873120009531052DDC
:101004002400161516190728082804280800053096
:10101400F3000F30F200F130890B0E28F20B0E288A
:10102400F30B0E2800003030803108208831343032
:1010340080310820883130308031082088310D30EB
:10104400F200FC30890B2428F20B24283030803144
:1010540008208831343080310820883130308031A4
:10106400082088310D30F200FC30890B3728F20B50
:1010740037283030803108208831343080310820DE
:1010840088313030803108208831C830890B4828B5
:101094002030803108208831243080310820883184
:1010A40020308031082088310630890B57280032DF
:1010B4002030803108208831243080310820883164
:1010C40020308031082088314230890B6728003273
:1010D4008030803108208831843080310820883184
:1010E40080308031082088310030803108208831F8
:1010F4000430803108208831003080310820883164
:101104004230890B83280032C03080310820883176
:10111400C430803108208831C030803108208831C3
:101124000030803108208831043080310820883133
:1011340000308031082088314230890B9F280032EA
:1011440010308031082088311430803108208831F3
:1011540010308031082088310D30F200FC30890BCA
:10116400B128F20BB12800308031082088310430D6
:1011740080310820883100308031082088314230A5
:10118400890BC228003260308031082088316430F5
:101194008031082088316030803108208831003067
:1011A40080310820883104308031082088310030B3
:1011B4008031082088314230890BDE28003220300B
:1011C4008031082088312430803108208831203053
:1011D4008031082088310830F200CA30890BF028A9
:1011E400F20BF0280800200054088039D90059086F
:1011F400E1005435D9005908E300D31F022903291B
:101204000429631463080319082909291929630A9D
:10121400031D0D290E2916290030D4000030D300F7
:101224000030D2000030D100D317D401212900307E
:10123400D4000030D3000030D2000030D100580870
:101244008039D9005908E2006208610603192B2984
:101254002C292D2961175835D9005908E200D71FC8
:101264003429352936296214620803193A293B299D
:101274004B29620A031D3F29402948290030D80020
:101284000030D7000030D6000030D500D717D80181
:1012940053290030D8000030D7000030D600003089
:1012A400D500630862020318582959299D29611F32
:1012B4005C295D2961298030D9005908E106630859
:1012C400D9005908E4006208D9005908E300640809
:1012D400D9005908E2005108D9005908E40055081A
:1012E400D9005908D1006408D9005908D50052081A
:1012F400D9005908E4005608D9005908D2006408F6
:10130400D9005908D6005308D9005908E4005708F1
:10131400D9005908D3006408D9005908D7005408E3
:10132400D9005908E4005808D9005908D4006408C1
:10133400D9005908D800E4016208D900DA015A0832
:10134400DC0063085902DB00031CDC035C08803A00
:10135400DD0080305D02031DB1291A305B02031CDD
:10136400B429B529ED29200054085304520451042A
:10137400031DBD29BF290130C0290030D9005908F7
:10138400E4000030D4000030D3000030D20000303C
:10139400D1006208D9005908E300F429641CD32958
:1013A400D429DA2964360138D9005908E400DC2943
:1013B4000310E40C511CDF29E029E129E417013072
:1013C400D900D437D30CD20CD10CD90BE32901307A
:1013D400D9005908E307200062086302031CF329BB
:1013E400F429D029611BF729F829302A6308031D41
:1013F400FC29FD29062A0030D4000030D300003037
:10140400D2000030D1002C2B5508D1075608D23D0C
:101414005708D33D5808D43D541C112A122ABC2A1B
:10142400641C152A162A1C2A64360138D900590866
:10143400E4001E2A0310E40C511C212A222A232A28
:10144400E4170130D900D437D30CD20CD10CD90B0A
:10145400252A0130D9005908E307BC2A5408803AE8
:10146400D9005808803A5902031D422A57085302EA
:10147400031D422A56085202031D422A55085102EE
:101484000318452A462A7E2AFF30D900FF30DA00A5
:10149400FF30DB00FF30DC0051085502DD0052084C
:1014A400563BDE005308573BDF005408583BE0002E
:1014B4005D08D9075E08DA3D5F08DB3D6008DC3D66
:1014C4005C08D4005B08D3005A08D2005908D10044
:1014D4008030D9005908E106E409E40A6408031DD0
:1014E400742A752A862A0130D1070030D23D003093
:1014F400D33D0030D43D862A5508D1025608D23B4C
:101504005708D33B5808D43B54085304520451049D
:10151400031D8D2A8E2AB82A6408031D922A932A51
:10152400B82A0030D4000030D3000030D20000309C
:10153400D1002C2B0130D135D20DD30DD40D890B14
:101544009D2AE41FA62AA72AA82A5114641CAB2AA0
:10155400AC2AAF2A0314E40DB12A0310E40D630886
:101564000319B52AB62AB82A0130E302D31FBB2ACD
:10157400BC2A9C2AE201E41FC02AC12ACF2A64089B
:101584007F390319C62AC72ACA2AE201E20ACF2AE6
:10159400511CCD2ACE2ACF2AC72A62080319D32A7E
:1015A400D42A012B0130D1070030D23D0030D33D85
:1015B4000030D43D541CDF2AE02A012B5108D90005
:1015C4005208DA005308DB005408DC000130DD0067
:1015D400DC37DB0CDA0CD90CDD0BEA2A5C08D4000E
:1015E4005B08D3005A08D2005908D100630A0319D2
:1015F400FC2AFD2A012B0130D9005908E307630AAC
:101604000319052B062B0B2B6308031D0A2B0B2B2D
:10161400192B0030D4000030D3000030D200003049
:10162400D1006308031D172B182B192BE101631C30
:101634001C2B1D2B1F2BD317232B7F30D9005908AC
:10164400D3056336D9005908D400E11F2A2B2B2B6C
:101654002C2BD4170800200027088039AC002C0854
:10166400B1002735AC002C08B700A61F3A2B3B2B42
:101674003C2B371437080319402B412B502B370AC6
:10168400031D452B462B4E2B0030A7000030A6002F
:101694000030A5000030A400A617582B0030A70086
:1016A4000030A6000030A5000030A4002B088039CB
:1016B400AC002C08B1062B35AC002C08B600AA1FD0
:1016C400642B652B662B3614360803196A2B6B2B97
:1016D4007A2B360A031D6F2B702B782B0030AB004E
:1016E4000030AA000030A9000030A800AA17822BFD
:1016F4000030AB000030AA000030A9000030A80080
:1017040036080319862B872B8C2B3708031D8B2B4C
:101714008C2B952B0030A7000030A6000030A500CC
:101724000030A400832D2408AC002C08F0002A0803
:101734009E314B268B3171082000BD007008BC001F
:101744003C08AC00AD01AE01AF012F08B5002E0876
:10175400B4002D08B3002C08B2003D08AC00AD0164
:10176400AE01AF012F08BB002E08BA002D08B90046
:101774002C08B8002508AC002C08F00029089E317C
:101784004B268B3171082000BD007008BC003C085A
:10179400AC00AD01AE01AF012C08B2072D08B33D7A
:1017A4002E08B43D2F08B53D3D08AC00AD01AE0197
:1017B400AF012C08B8072D08B93D2E08BA3D2F08F3
:1017C400BB3D2608AC002C08F00028089E314B26AF
:1017D4008B3171082000BD007008BC003C08AC00CF
:1017E400AD01AE01AF012C08B2072D08B33D2E08A0
:1017F400B43D2F08B53D3D08AC00AD01AE01AF01CD
:101804002C08B8072D08B93D2E08BA3D2F08BB3D5A
:101814000830B235B30DB40DB50D890B0B2C25086A
:10182400AC002C08F00028089E314B268B3171083F
:101834002000BD007008BC003C08B2073D08B33D61
:101844000030B43DB53D2408AC002C08F000290854
:101854009E314B268B3171082000BD007008BC00FE
:101864003C08B2073D08B33D0030B43DB53D0830F7
:10187400B235B30DB40DB50D890B3A2C2408AC0068
:101884002C08F00028089E314B268B31710820006B
:10189400BD007008BC003C08B2073D08B33D0030F1
:1018A400B43DB53D2508AC002C08F0002A089E3153
:1018B4004B268B3171082000BD007008BC003C0829
:1018C400B8073D08B93D0030BA3DBB3D2608AC0021
:1018D4002C08F00029089E314B268B31710820001A
:1018E400BD007008BC003C08B8073D08B93D003095
:1018F400BA3DBB3D2608AC002C08F0002A089E31F6
:101904004B268B3171082000BD007008BC003C08D8
:10191400AC003D08AD00AE01AF010830AC35AD0DF3
:10192400AE0DAF0D890B902C2C08B8072D08B93DCE
:101934002E08BA3D2F08BB3D3208AC003308AD0079
:101944003408AE003508AF001830AF36AE0CAD0C1D
:10195400AC0C890BA72C2C08B8072D08B93D2E0810
:10196400BA3D2F08BB3D0830B235B30DB40DB50DEB
:10197400890BB62C37083607AC00AD01AD0D2C0829
:10198400823EBC00FF302D3DBD00DF2C0130B83558
:10199400B90DBA0DBB0D890BC92CB51FD22CD32C94
:1019A400D42C38140130B235B30DB40DB50D890BF8
:1019B400D52CFF30BC07FF30BD3DBA1FE22CE32C11
:1019C400C82CB601B51FE72CE82C042DFF303205D6
:1019D400AC00FF303305AD00FF303405AE007F307E
:1019E4003505AF002F082E042D042C040319FB2CFD
:1019F400FC2CFF2CB601B60A042D381C022D032D35
:101A0400042DFC2C36080319082D092D312D013025
:101A1400B8070030B93D0030BA3D0030BB3D3B1C37
:101A2400142D152D312D3808AC003908AD003A08B5
:101A3400AE003B08AF000130B000AF37AE0CAD0CC8
:101A4400AC0CB00B1F2D2F08BB002E08BA002D08BC
:101A5400B9002C08B8000130BC070030BD3D3D087A
:101A6400803AAC0080302C02031D3A2DFF303C023A
:101A7400031C3D2D3E2D482D7F302000BB008030BF
:101A8400BA000030B9000030B800772D20003D08BE
:101A9400803AAC0080302C02031D522D01303C02F0
:101AA4000318552D562D612D00302000BB00003049
:101AB400BA000030B9000030B800B101772D200021
:101AC4003C08AC002C08B700FF30B805FF30B9055E
:101AD4007F30BA050030BB05371C712D722D732D74
:101AE400BA173736AC002C08BB003108AC002C0800
:101AF400BB043B08A7003A08A6003908A50038082B
:101B0400A40008002000D200D21F892D8A2DC62EE1
:101B1400D209D20A5208803A123E031C922D932D08
:101B24003F2E0A30F7000030F8005208F200F301AB
:101B3400F21BF3036430F0000030F10090315E20BA
:101B44008D317108FA007008F90091310B218D3143
:101B54007708093E2000C200C301C235C30DC23557
:101B6400C30D343042078400A030433D8500003F5C
:101B7400C400013FC500023FC600033FC700470839
:101B8400A7004608A6004508A5004408A400643040
:101B9400F7000030F8005208F900FA01F91BFA03C3
:101BA40091310B218D317708123E2000C800C90104
:101BB400C835C90DC835C90D343048078400A03074
:101BC400493D8500003FCA00013FCB00023FCC00E5
:101BD400033FCD004D08AB004C08AA004B08A900F8
:101BE4004A08A8008B312D238D3120002708D1000D
:101BF4002608D0002508CF002408CE000A30F000C3
:101C04000030F1005208F200F301F21BF3039031AB
:101C14005E208D3170082000C200C301C235C30D9F
:101C2400C235C30D343042078400A030433D8500E3
:101C3400003FC400013FC500023FC600033FC70088
:101C44004708A7004608A6004508A5004408A400C4
:101C54005108AB005008AA004F08A9004E08A8007C
:101C64008B312D238D3120002708C1002608C000A8
:101C74002508BF002408BE00FF2F5208803A753E95
:101C8400031C452E462EA82E0A30F0000030F10029
:101C94005208F200F301F21BF30390315E208D3100
:101CA40070082000C200C301C235C30DC235C30D84
:101CB400343042078400A030433D8500003FC40017
:101CC400013FC500023FC600033FC7004708A70005
:101CD4004608A6004508A5004408A4000A30F700F9
:101CE4000030F8005208F900FA01F91BFA039131A7
:101CF4000B218D317708093E2000C800C901C83581
:101D0400C90DC835C90D343048078400A030493D99
:101D14008500003FCA00013FCB00023FCC00033FD7
:101D2400CD004D08AB004C08AA004B08A9004A0896
:101D3400A8008B312D238D3120002708C1002608EF
:101D4400C0002508BF002408BE00FF2F5208C200AF
:101D5400C301C235C30DC235C30D343042078400FC
:101D6400A030433D8500003FC400013FC500023F51
:101D7400C600033FC7004708C1004608C000450825
:101D8400BF004408BE00FF2F5208803A123E031CD5
:101D9400CC2ECD2E792F0A30F7000030F8005208EF
:101DA400F200F301F21BF3036430F0000030F100A1
:101DB40090315E208D317108FA007008F90091317C
:101DC4000B218D317708093E2000C200C301C235C2
:101DD400C30DC235C30D003042078400A030433D1B
:101DE4008500003FC400013FC500023FC600033F19
:101DF400C7004708A7004608A6004508A5004408F0
:101E0400A4006430F7000030F8005208F900FA0129
:101E1400F91BFA0391310B218D317708123E200012
:101E2400C800C901C835C90DC835C90D00304807F7
:101E34008400A030493D8500003FCA00013FCB002B
:101E4400023FCC00033FCD004D08AB004C08AA0074
:101E54004B08A9004A08A8008B312D238D3120009E
:101E64002708D1002608D0002508CF002408CE007A
:101E74000A30F0000030F1005208F200F301F21BC6
:101E8400F30390315E208D3170082000C200C3013D
:101E9400C235C30DC235C30D003042078400A030E3
:101EA400433D8500003FC400013FC500023FC6001A
:101EB400033FC7004708A7004608A6004508A50039
:101EC4004408A4005108AB005008AA004F08A90018
:101ED4004E08A8008B312D238D3120002708C10026
:101EE4002608C0002508BF002408BE00FF2F5208A2
:101EF400803A753E031C7F2F802FE22F0A30F000BA
:101F04000030F1005208F200F301F21BF3039031A8
:101F14005E208D3170082000C200C301C235C30D9C
:101F2400C235C30D003042078400A030433D850014
:101F3400003FC400013FC500023FC600033FC70085
:101F44004708A7004608A6004508A5004408A400C1
:101F54000A30F7000030F8005208F900FA01F91BC2
:101F6400FA0391310B218D317708093E2000C80016
:101F7400C901C835C90DC835C90D003048078400EA
:101F8400A030493D8500003FCA00013FCB00023F1D
:101F9400CC00033FCD004D08AB004C08AA004B0811
:101FA400A9004A08A8008B312D238D312000270871
:101FB400C1002608C0002508BF002408BE00FF2F6A
:101FC4005208C200C301C235C30DC235C30D00306F
:101FD40042078400A030433D8500003FC400013F18
:101FE400C500023FC600033FC7004708C1004608BA
:101FF400C0004508BF004408BE000800F000700897
:10200400240091001418072808280428161B0B28FC
:102014000C2808289D31B125903108000030700546
:10202400F80000307105F90080307205FA007F3045
:102034007305FB007B087A0479047804031D2328C4
:1020440024282C280030F3000030F2000030F10086
:102054000030F00000307405F80000307505F90018
:1020640080307605FA007F307705FB007B087A0420
:1020740079047804031D3F28402848280030F700DD
:102084000030F6000030F5000030F40077087306E5
:10209400031D562876087206031D56287508710616
:1020A400031D562874087006031959285A285C28F9
:1020B40003105D2803140800F601F31F6228632847
:1020C4006A28F209F309F20A0319F30AF601F60A77
:1020D400F11F6D286E287328F009F109F00A03191D
:1020E400F10A70087104031978287928A228F501E7
:1020F400F50A85280130F035F10D890B7D28013072
:10210400F4007408F507F11F882889287C287108D1
:102114007302031D8F2870087202031C92289328EF
:1021240097287008F2027108F33B0130F136F00C85
:10213400890B98280130F502031DA128A2288928BB
:1021440076080319A628A728AC28F209F309F20A8D
:102154000319F30A7308F1007208F0000800003054
:10216400FC000030FB000030FA000030F900730876
:102174007204710470040319C028C1280229FD01E6
:10218400FD0ACF280130F035F10DF20DF30D890B66
:10219400C5280130F8007808FD07F31FD228D3289A
:1021A400C4280130F935FA0DFB0DFC0D890BD42838
:1021B40073087702031DE82872087602031DE828D5
:1021C40071087502031DE82870087402031CEB28CB
:1021D400EC28F5287008F4027108F53B7208F63B08
:1021E4007308F73B79140130F336F20CF10CF00C60
:1021F400890BF6280130FD02031D01290229D32889
:102204007C08F3007B08F2007A08F1007908F000FA
:1022140008002000A101F81F102911291829F70925
:10222400F809F70A0319F80AA101A10AFA1F1B29E0
:102234001C292529F909FA09F90A0319FA0A0130AE
:10224400FB007B08A106A201A30177087804031907
:102254002C292D295C29A001A00A39290130F73540
:10226400F80D890B31290130FB007B08A007F81F0A
:102274003C293D2930290130A235A30D890B3E2983
:1022840078087A02031D482977087902031C4B2930
:102294004C2951297708F9027808FA3B22140130B5
:1022A400F836F70C890B52290130A002031D5B2973
:1022B4005C293D2921080319602961296629A2099D
:1022C400A309A20A0319A30A2308F8002208F700A5
:1022D400080003102000550D560DD7005708DD00E7
:1022E4005D08031D7629772980290030D600003047
:1022F400D5000030D4000030D300DF295308D700C4
:102304005408D8005508D9005608DA001F30DA36C8
:10231400D90CD80CD70C890B89295708DB005B082A
:10232400DC00D517FF30D305FF30D405FF30D505C9
:102334000030D6059630DD02DD1FA129A229BA2975
:102344005D08803A973E0318A829A929AA29772964
:102354000130D636D50CD40CD30C890BAB29013003
:10236400D7005708DD07031DB829B929AA29CF29A1
:1023740020305D02031CBF29C029CA2977290130F6
:10238400D335D40DD50DD60D890BC2290130DD020C
:102394005D08031DCE29CF29C1295C080319D3295F
:1023A400D429DF29D309D409D509D609D30A0319B5
:1023B400D40A0319D50A0319D60A08000030700597
:1023C400F80000307105F90080307205FA007F30A2
:1023D4007305FB007B087A0479047804031DF32950
:1023E400F429FC290030F3000030F2000030F10041
:1023F4000030F00000307405F80000307505F90075
:1024040080307605FA007F307705FB007B087A047C
:1024140079047804031D0F2A102A182A0030F700C3
:102424000030F6000030F5000030F400F31F1B2AE2
:102434001C2A342A0030F8000030F9000030FA0079
:102444008030FB007008F8027108F93B7208FA3B0F
:102454007308FB3B7B08F3007A08F2007908F1006B
:102464007808F000F71F372A382A502A0030F8007D
:102474000030F9000030FA008030FB007408F802E4
:102484007508F93B7608FA3B7708FB3B7B08F700B5
:102494007A08F6007908F5007808F4008030F3062D
:1024A4008030F70677087302031D622A76087202E9
:1024B400031D622A75087102031D622A74087002E2
:1024C4000318652A662A682A0310692A0314080077
:1024D4002000A101F31F6F2A702A7D2AF009F10957
:1024E400F209F309F00A0319F10A0319F20A0319AC
:1024F400F30AA101A10AF71F802A812A902AF4096C
:10250400F509F609F709F40A0319F50A0319F60A95
:102514000319F70A0130F8007808A1060030A50075
:102524000030A4000030A3000030A200730872043D
:102534007104700403199F2AA02AE12AA001A00AA9
:10254400AE2A0130F035F10DF20DF30D890BA42AFA
:102554000130F8007808A007F31FB12AB22AA32A91
:102564000130A235A30DA40DA50D890BB32A730860
:102574007702031DC72A72087602031DC72A710851
:102584007502031DC72A70087402031CCA2ACB2AC9
:10259400D42A7008F4027108F53B7208F63B7308FC
:1025A400F73B22140130F336F20CF10CF00C890BDA
:1025B400D52A0130A002031DE02AE12AB22A21080B
:1025C4000319E52AE62AF12AA209A309A409A509FF
:1025D400A20A0319A30A0319A40A0319A50A2508C0
:1025E400F3002408F2002308F1002208F000080098
:1025F400F80078080319FF2A002B142BF31F032B70
:10260400042B142B7009FA007109FB007209FC00F9
:102614007309FD00FA0A0319FB0A0319FC0A0319DA
:10262400FD0A1C2B7308FD007208FC007108FB00F6
:102634007008FA007308720471047004031D232BDC
:10264400242B2D2B0030F3000030F2000030F10079
:102654000030F000A52B9630F4007408F9003D2BEF
:102664000130F4007408F9070130FD36FC0CFB0C52
:10267400FA0C890B372BFE307D05031D422B432BAF
:10268400322B572B0130F4007408F9070130FA0794
:102694000030FB3D0030FC3D0030FD3D0130FD3697
:1026A400FC0CFB0CFA0C890B512BFF307D05031D30
:1026B4005C2B5D2B442B672B0130F9020130FA357A
:1026C400FB0DFC0DFD0D890B612BFC1B6A2B6B2B89
:1026D400712B023079020318702B712B5E2B791841
:1026E400742B752B7D2BFF30FA05FF30FB057F30F3
:1026F400FC05FF30FD050310F90C7908F400F50121
:10270400F601F7011830F435F50DF60DF70D890BC8
:10271400852B7408FA047508FB047608FC04770812
:10272400FD0478080319972B982B9D2BF31F9B2BE3
:102734009C2B9D2BFD177D08F3007C08F2007B0881
:10274400F1007A08F00008000310720D730DF80010
:1027540078082000A5002508031DB12BB22BBB2B44
:102764000030F3000030F2000030F1000030F000DF
:10277400542C0310760D770DF8007808A400240873
:10278400031DC52BC62BC72BB22BF217FF30F00548
:10279400FF30F105FF30F2050030F305F617FF3086
:1027A400F405FF30F505FF30F6050030F70500307D
:1027B400A3000030A2000030A1000030A0007F3050
:1027C400A502A0302407F8007808A5022030F800FC
:1027D4007808A4000130A035A10DA20DA30D890B2A
:1027E400ED2B77087302031D012C76087202031D7A
:1027F400012C75087102031D012C74087002031C5E
:10280400042C052C0E2C7408F0027508F13B760894
:10281400F23B7708F33B20140130F035F10DF20D53
:10282400F30D890B0F2C0130A402031D1A2C1B2C51
:10283400EC2BA51F1E2C1F2C372C2508803A9F3EFD
:102844000318252C262C272CB22B0130A336A20CDE
:10285400A10CA00C890B282C0130F8007808A507DE
:10286400031D352C362C272C4C2C20302502031C20
:102874003C2C3D2C472CB22B0130A035A10DA20DD0
:10288400A30D890B3F2C0130A5022508031D4B2CF9
:102894004C2C3E2C2308F3002208F2002108F100FE
:1028A4002008F00008007008F8007108F9007208A8
:1028B400FA000310790D7A0DFB007B082000A500B7
:1028C4002508031D662C672C702C0030F3000030A3
:1028D400F2000030F1000030F000042D7408F8001C
:1028E4007508F9007608FA000310790D7A0DFB00DB
:1028F4007B08A4002408031D802C812C822C672CC7
:10290400F117FF30F005FF30F1050030F205F5173F
:10291400FF30F405FF30F5050030F6050030A30064
:102924000030A2000030A1000030A0007F30A502DA
:1029340098302407F8007808A5021830F8007808C1
:10294400A4000130A035A10DA20DA30D890BA42C68
:1029540076087202031DB42C75087102031DB42C91
:1029640074087002031CB72CB82CBF2C7408F00236
:102974007508F13B7608F23B20140130F035F10D77
:10298400F20D890BC02C0130A402031DCA2CCB2CE0
:10299400A32CA51FCE2CCF2CE72C2508803A973EDC
:1029A4000318D52CD62CD72C672C0130A336A20CB7
:1029B400A10CA00C890BD82C0130F8007808A507CD
:1029C400031DE52CE62CD72CFC2C18302502031C07
:1029D400EC2CED2CF72C672C0130A035A10DA20DA9
:1029E400A30D890BEF2C0130A5022508031DFB2C38
:1029F400FC2CEE2C2308F3002208F2002108F1003D
:102A04002008F00008009D319225953123008C01A7
:102A14008D01023021008C0022008C018D011330C5
:102A240024009200283095009601940188310920F1
:102A340095319D31BD259531F80100309E319626A2
:102A440095319030F800A030F9009D31EF25953193
:102A54000B302000EE002630ED005D30890B302D68
:102A6400ED0B302DEE0B302D003232309531BD257B
:102A74009531200029082100CE00200028082100DB
:102A8400CD00200027082100CC00200026082100CA
:102A9400CB001F302000EE007130ED001E30890B9A
:102AA400512DED0B512DEE0B512D000008309531B9
:102AB400BD259531200029082100D20020002808D6
:102AC4002100D100200027082100D0002000260882
:102AD4002100CF0052082000B0002100510820003E
:102AE400AF00210050082000AE0021004F08200054
:102AF400AD009F31B2279531200030082100CA0073
:102B040020002F082100C90020002E082100C80041
:102B140020002D082100C7009B30A000A030A10098
:102B24004A08A5004908A4004808A3004708A200D1
:102B3400D3308131D02195319E316E269531F80103
:102B440000309E3196269531D330F8000030F900DC
:102B54009D31EF25953102302000EE000430ED0068
:102B6400BA30890BB32DED0BB32DEE0BB32D000052
:102B7400582D803102282000AF009D317F259531EA
:102B840000302000B3000030B2000030B10000304B
:102B9400B0000030AD000030AC000030AB000030BD
:102BA400AA00AE01482E9D317B259531003A0319C8
:102BB400DC2DDD2DD52D9D317B259531013A031971
:102BC400E42DE52DDD2D0630890BE62D00322000A5
:102BD400B4010130B035B10DB20DB30D890BEC2D3C
:102BE4009D31742595310630890BF62D00329D31C7
:102BF4007F2595319D317B259531F900FA01FB0143
:102C0400FC0179082000B0077A08B13D7B08B23D89
:102C14007C08B33D0630890B0D2E00320130F900DB
:102C240079082000B40718303402031C1A2E1B2E16
:102C3400EB2DB4019D31742595310630890B202E7E
:102C440000329D317F2595310630890B272E0032C5
:102C54000130F90079082000B40734080319332E31
:102C6400342E1C2E3008AA073108AB3D3208AC3D87
:102C74003308AD3D0030B3000030B2000030B10085
:102C84000030B0000130F9007908AE072F082E0299
:102C9400031C4D2E4E2ED52D2F08F900FA01FB01F1
:102CA400FC017C08F3007B08F2007A08F100790843
:102CB400F0002D08F7002C08F6002B08F5002A0870
:102CC400F40092316A22953173082000B30072082F
:102CD400B2007108B1007008B0003308A9003208CE
:102CE400A8003108A7003008A60008002000D00082
:102CF4006E305002031C7F2E802E492F3F30A700D8
:102D04000030A6000030A5000030A4006430F600B6
:102D14000030F7005008C200C3014208F80043081D
:102D2400F9009F312C2796317708850076088400B6
:102D34008435850D8435850D7C308407A030853D30
:102D4400003F2000C400013FC500023FC600033F0E
:102D5400C7004708AB004608AA004508A900440874
:102D6400A8008B312D23963120002708CF00260898
:102D7400CE002508CD002408CC000A30F60000302F
:102D8400F7005008C200C3014208F2004308F300F0
:102D94006430F0000030F1009E31C0269631710895
:102DA400F9007008F8009F312C27963177088500C8
:102DB400760884008435850D8435850D5830840764
:102DC400A030853D003F2000C400013FC500023F04
:102DD400C600033FC7004708A7004608A6004508E9
:102DE400A5004408A4004F08AB004E08AA004D08F3
:102DF400A9004C08A8008B312D2396312000270808
:102E0400CB002608CA002508C9002408C8000A30D7
:102E1400F0000030F1005008C200C3014208F20083
:102E24004308F3009E31C02696317108850070086E
:102E340084008435850D8435850D34308407A030B5
:102E4400853D003F2000C400013FC500023FC6008D
:102E5400033FC7004708A7004608A6004508A50089
:102E64004408A4004B08AB004A08AA004908A9007A
:102E74004808A8008B312D23963120002708C10073
:102E84002608C0002508BF002408BE00FF2F0B3011
:102E94005002031C4E2F4F2FCE2F3F30A70000307F
:102EA400A6000030A5000030A4000A30F60000306F
:102EB400F7005008C200C3014208F8004308F900B3
:102EC4009F312C2796317708850076088400843555
:102ED400850D8435850D58308407A030853D003F2D
:102EE4002000C400013FC500023FC600033FC700E5
:102EF4004708AB004608AA004508A9004408A800F2
:102F04008B312D23963120002708CF002608CE00D0
:102F14002508CD002408CC000A30F0000030F10070
:102F24005008C200C3014208F2004308F3009E3176
:102F3400C026963171088500700884008435850D9B
:102F44008435850D34308407A030853D003F200052
:102F5400C400013FC500023FC600033FC700470845
:102F6400A7004608A6004508A5004408A4004F0889
:102F7400AB004E08AA004D08A9004C08A8008B31EC
:102F84002D23963120002708C1002608C0002508FB
:102F9400BF002408BE00FF2F3F30A7000030A6006A
:102FA4000030A5000030A4005008C200C301C2359F
:102FB400C30DC235C30D343042078400A030433DF5
:102FC4008500003FC400013FC500023FC600033F27
:102FD400C7004708AB004608AA004508A9004408F2
:102FE400A8008B312D23963120002708C100260824
:0C2FF400C0002508BF002408BE00080033
:103AE80022000C140800163021009700080020005E
:103AF8000C0C01390800FE30F000700822008C051B
:103B08000800640080010131890B862D0034703073
:103B18002100990098012200960108009D31CB25CB
:103B28009D319D318B259D319D3177259D31080033
:103B38009D31B1259D31240016141618A42DA52DEC
:103B4800A12D080073087204710470040319AD2DC7
:103B5800AE2DB02D8030F3060800240016081F395A
:103B6800031DB72DB82DB12D1419BB2DBC2DB12DAA
:103B780008000830803108209D310830F2007208B2
:103B88002000EF000630890BC72D00320800220004
:103B98008C018D01FF3021008C00FF308D00FE303C
:103BA80023008D001F308C0024008D012100951703
:103BB8000800F100F0013A3071020318E42DE52DF8
:103BC800ED2D30307102031CEA2DEB2DED2DF001A7
:103BD800F00A700C0800022E780884007908850025
:103BE8000008FA007A08FB000130F8070030F93DB8
:103BF800F201F20A7B089E31F4269D317808840090
:103C0800790885001200031D0A2E0B2EF02D0800DE
:103C1800F401F501701C112E122E162E7208F407ED
:103C28007308F53D0130F235F30D890B172E01307D
:103C3800F136F00C890B1C2E70087104031D252E1B
:103C4800262E0E2E7508F1007408F000080080304A
:103C58002000E8066C08D4006B08D3006A08D2007C
:103C68006908D1006808D8006708D7006608D60038
:103C78006508D5008831F5209E3120005408E800F9
:103C88005308E7005208E6005108E5000800F8006C
:103C9800F401F5017008F200F3017208F6007308E8
:103CA800F700781C582E592E5D2E7608F4077708F1
:103CB800F53D0130F635F70D890B5E2E0310F80C33
:103CC8007808031D682E692E552E7508F1007408B2
:103CD800F00008002000A601A7012608FC007C08C7
:103CE800F80027089E3196269E31A330F800A030B0
:103CF800F9009D31EF259E310130FC007C08200041
:103D0800A70710302702031C8A2E8B2E712E013034
:103D1800FC007C08A60702302602031C942E952E70
:103D2800702E08002000A400210066082000A300CF
:103D3800210065082000A200210064082000A100DD
:103D4800210063082000A00003307802031CAD2E78
:103D5800AE2EB02EF801F80A7808203E86008701BA
:103D6800010824078038F9007908A500F201250820
:103D78009E31F4269E310800700871040319C52E7F
:103D8800C62EEF2EF501F50AD22E0130F035F10DD1
:103D9800890BCA2E0130F4007408F507F11FD52EDF
:103DA800D62EC92E71087302031DDC2E700872020C
:103DB800031CDF2EE02EE42E7008F2027108F33B9C
:103DC8000130F136F00C890BE52E0130F502031DA8
:103DD800EE2EEF2ED62E7308F1007208F0000800C0
:103DE800F5007508F03920006F047204F3007308B9
:103DF800F6007508F3000330F335FF3E031D002F6E
:103E08007335F0396F047204F4007408F70076080B
:103E1800803108209E3176080438803108209E3190
:103E28007608FB39803108209E314230890B1A2FE1
:103E380000327708803108209E31770804388031B5
:103E480008209E317708FB39803108209E31080010
:103E5800FB01FC01760877040319332F342F632FF5
:103E6800FD01FD0A402F0130F635F70D890B382F7B
:103E78000130FA007A08FD07F71F432F442F372F28
:103E88000130FB35FC0D890B452F77087902031D9E
:103E98004F2F76087802031C522F532F582F76087D
:103EA800F8027708F93B7B140130F736F60C890BDA
:103EB800592F0130FD02031D622F632F442F7C0808
:103EC800F7007B08F6000800730872047104700498
:103ED80003196F2F702FA92FF901F90A7E2F0130CE
:103EE800F035F10DF20DF30D890B742F0130F80048
:103EF8007808F907F31F812F822F732F7308770231
:103F0800031D902F72087602031D902F7108750209
:103F1800031D902F70087402031C932F942F9C2F5D
:103F28007008F4027108F53B7208F63B7308F73B1A
:103F38000130F336F20CF10CF00C890B9D2F013097
:103F4800F902031DA82FA92F822F7708F3007608FE
:103F5800F2007508F1007408F000080021004B0811
:103F680020002D02B10021004C0820002E3BB20099
:103F780021004D0820002F3BB30021004E082000EF
:103F8800303BB4003408F3003308F2003208F10083
:103F98003108F00001309231FA229F317308200075
:103FA800B8007208B7007108B6007008B500433051
:103FB800F300F330F2000030F1000030F000380870
:103FC800F7003708F6003608F5003508F4008031A8
:103FD8001C209F3173082000B8007208B7007108D0
:103FE800B6007008B5003808B0003708AF003608CA
:103FF800AE003508AD0008000034003480343F348A
:10400800003400342034413400340034C83442349D
:10401800003400347A344434003440341C34463498
:1040280000345034C33447340034243474344934AD
:104038008034963418344B342034BC34BE344C3479
:1040480028346B346E344E34F93402341534503419
:10405800EC347834AD346034CA34F23449347134D1
:104068000034003480343F34CD34CC34CC343D3447
:104078000A34D73423343C346F34123483343A341A
:104088001734B734D1343834AC34C53427343734E2
:10409800BD343734863435349534BF34D63433346C
:1040A8007734CC342B3432345F3470348934303440
:1040B800FF34E634DB342E340834E5343C341E3423
:1040C80060344234A2340D340134003400340034F6
:1040D8000A340034003400346434003400340034CA
:1040E800E834033400340034103427340034003406
:1040F800A034863401340034403442340F34003460
:1041080080349634983400340034E134F53405347E
:104118000034CA349A343B3449346E3469347434C4
:10412800693461346C3469347A3465340034253444
:1041380033342E3432346634203467340034203437
:02414800003441
:020000040001F9
:04000E00E43FFF1EAE
:00000001FF
