:10000000803102288731DA2FF1009C315A24803167
:100010004E309C318924803171089C318924803193
:100020008831022080310630890B14280032080004
:1000300000307005F80000307105F900803072055D
:10004000FA007F307305FB007B087A04790478049A
:10005000031D2B282C2834280030F3000030F20038
:100060000030F1000030F00000307405F80000307E
:100070007505F90080307605FA007F307705FB00C2
:100080007B087A0479047804031D472848285028FF
:100090000030F7000030F6000030F5000030F400CA
:1000A000F31F532854286C280030F8000030F90062
:1000B0000030FA008030FB007008F8027108F93B4C
:1000C0007208FA3B7308FB3B7B08F3007A08F200E6
:1000D0007908F1007808F000F71F6F287028882849
:1000E0000030F8000030F9000030FA008030FB00EA
:1000F0007408F8027508F93B7608FA3B7708FB3B71
:100100007B08F7007A08F6007908F5007808F40013
:100110008030F3068030F70677087302031D9A28B3
:1001200076087202031D9A2875087102031D9A2829
:100130007408700203189D289E28A0280310A12887
:1001400003140800A4302100A8002808B200C02F22
:10015000253047060319AD28AE28B92820088600A7
:1001600021088700470881000130A0070030A13D29
:10017000C02FB301B401B901BA01220884002308D9
:10018000850000089C31AB248031031CC828C92895
:10019000FC282100B301B4010A30F0000030F10066
:1001A00021003408F3003308F2009C31DA24803156
:1001B00071082100B4007008B300220884002308ED
:1001C00085000008D03EA800FF3003180030A900C9
:1001D0002808B3072908B43D0130A2070030A33D29
:1001E000220884002308850000089C31AB2480315C
:1001F0000318FB28FC28CC282100220884002308AF
:10020000850012002E3A031D0629072940293A17B6
:100210000130A2070030A33DC501C60133290A30D1
:10022000F0000030F10021004608F3004508F2001C
:100230009C31DA24803171082100C6007008C500A5
:1002400022088400230885000008D03EA800FF3063
:1002500003180030A9002808C5072908C63D013049
:10026000A2070030A33D220884002308850000086F
:100270009C31AB24803103183E293F290F294A299C
:10028000C501C6013A164A2939164A293A156B2979
:1002900039176B2921002308A9002208A800A20A07
:1002A0000319A30A28088400290885000008C7004C
:1002B000003A0319D42F643A03196B29023A03193F
:1002C00046290F3A03196B29053A03194429193AAB
:1002D00003194829C02F00303905A80007303A0516
:1002E000A90028082904031976297729252E3A1E02
:1002F0007A297B297F290630C5000030C6003208E4
:1003000086008701403FC100413FC200423FC30019
:10031000433FC4000430A8002808B2074408F30093
:100320004308F2004208F1004108F0000030F700F5
:100330000030F6000030F5000030F4008031182065
:1003400080310318A429A529BE2921004408F300FF
:100350004308F2004208F1004108F0009C31642497
:10036000803173082100C4007208C3007108C20004
:100370007008C1000330B9040030BA042100BB0189
:10038000BC014408F3004308F2004208F1004108B0
:10039000F0000030F7000030F6000030F5000030CB
:1003A000F4009E31A52680310318D729D8298F2A39
:1003B00003102100430D440D823EBB00FF300318A3
:1003C0000030BC00FF30BB07FF30BC3D0330F00005
:1003D0000030F1003C08F3003B08F2009C31DA24C5
:1003E000803171082100BC007008BB000A30F700A2
:1003F0000030F8003C08FA003B08F9009F31A027C4
:10040000803178082100BC007708BB00BC1F092A96
:100410000A2A0E2AFF30BB07FF30BC3D3B03FF3AE0
:100420008D3184258031200041082100B800200052
:1004300040082100B70020003F082100B60020003E
:100440003E082100B50044082000A7002100430811
:100450002000A600210042082000A500210041083C
:100460002000A400210038082000AB00210037083C
:100470002000AA00210036082000A900210035082C
:100480002000A8008B312D23803120002708210077
:10049000B800200026082100B70020002508210010
:1004A000B600200024082100B5003808F300370802
:1004B000F2003608F1003508F0003F30F7008030D8
:1004C000F6000030F5000030F40080311820803153
:1004D00003186B2A6C2A722AFF302100BB07FF30F9
:1004E000BC3D8F2A21003808F3003708F200360897
:1004F000F1003508F0004130F7002030F600003000
:10050000F5000030F400803118208031031C892A66
:100510008A2A8F2A01302100BB070030BC3D210010
:100520004608803AA80080302802031D992A0D3021
:10053000450203189C2A9D2ACE2A210045089431A1
:10054000C424803120004108D4004008D3003F0873
:10055000D2003E08D100210044082000D80021002C
:1005600043082000D700210042082000D6002100C7
:1005700041082000D5008831F52080312000540842
:100580002100C400200053082100C30020005208AD
:100590002100C200200051082100C10021003C08B8
:1005A000803AA80080302802031DD82A0A303B0276
:1005B0000318DB2ADC2A1E2B21004408F300430821
:1005C000F2004208F1004108F0000030F70000306E
:1005D000F6000030F5000030F4009E31A526803191
:1005E0000318F32AF42A7A2B210044082000D600AD
:1005F000210043082000D500210042082000D4003B
:10060000210041082000D30090312E2080312000AD
:100610005608550454045304031D0F2B102B7A2B3A
:1006200021003C08803AA80080302802031D1A2BC4
:1006300002303B02031C1D2B1E2B7A2B2100380895
:10064000F3003708F2003608F1003508F0004030BA
:10065000F7008930F6007030F5005F30F40080312B
:10066000182080310318352B362B3C2BF730210016
:10067000BB07FF30BC3D412BF8302100BB07FF30EA
:10068000BC3D3B088D31842580312000410821008C
:10069000B800200040082100B70020003F082100DA
:1006A000B60020003E082100B5004408F3004308CE
:1006B000F2004208F1004108F0003808F70037085E
:1006C000F6003608F5003508F40091314F218031ED
:1006D00073082100C0007208BF007108BE007008D6
:1006E000BD000030C4000030C3000030C200003044
:1006F000C100D72B210044082000D6002100430868
:100700002000D500210042082000D400210041082B
:100710002000D30090312E20803120005608210087
:10072000C000200055082100BF002000540821000F
:10073000BE00200053082100BD004008F3003F0820
:10074000F2003E08F1003D08F00000309031A32097
:10075000803173082000E8007208E7007108E600A5
:100760007008E500210044082000EC002100430847
:100770002000EB00210042082000EA00210041088F
:100780002000E9009C31F924803120006808210014
:10079000C400200067082100C30020006608210073
:1007A000C200200065082100C100BB01BC01C701D7
:1007B000C70A4708A800A901A835A90DA835A90DA1
:1007C000003028078400A030293D8500003FAA00A2
:1007D000013FAB00023FAC00033FAD002D084002DB
:1007E000031DFC2B2C083F02031DFC2B2B083E0293
:1007F000031DFC2B2A083D020318FF2B002C012CA3
:100800000B2C0130A8002808C7070A304706031D33
:100810000A2C0B2CD92B47084507A80046080318BB
:10082000460AA9003B082807AA003C08293DAB005E
:100830002A08B3022B08B43B450846040319212CAF
:10084000222C262CFF30B307FF30B43D033039058E
:10085000A80000303A05A900280829040319312C02
:10086000322C432CFF30B307FF30B43D432C210022
:100870002008860021088700203081000130A00771
:100880000030A13D322C3408803AA8008030280284
:10089000031D4C2C0130330203184F2C502C372CE5
:1008A000033021003905A80000303A05A9002808C6
:1008B000290403195C2C5D2CC72C20088600210814
:1008C00087002D3081000130A0070030A13DC72CEA
:1008D0004708A800A901A835A90DA835A90D003021
:1008E00028078400A030293D8500003FF000013F2B
:1008F000F100023FF200033FF3004008F7003F0819
:10090000F6003E08F5003D08F4009F31462780318F
:1009100073082100B8007208B7007108B6007008AB
:10092000B50000302000A3000030A2000030A1007C
:100930000A30A000210038082000A7002100370855
:100940002000A600210036082000A500210035085F
:100950002000A4009E310C268031200023082100B5
:10096000B800200022082100B70020002108210043
:10097000B600200020082100B5003508303EA80050
:10098000200886002108870028088100632C013098
:10099000C702470A031DCD2CCE2C682CDE2C21006B
:1009A0002008860021088700303081000130A00730
:1009B0000030A13DFF30BB07FF30BC3D3C08803A12
:1009C000A80080302802031DE72C01303B020318E9
:1009D000EA2CEB2CCF2C21004608803AA80080306E
:1009E0002802031DF52C09304502031CF82CF92CB4
:1009F000FF2C08302100A8002808C700042D210082
:100A00004508A8002808C7004708A800A901280829
:100A1000C5022908C63B470803190F2D102D1A2DB2
:100A200020088600210887002E3081000130A007B1
:100A30000030A13D47088D318425803120004108D8
:100A40002100B100200040082100B00020003F0834
:100A50002100AF0020003E082100AE003108200038
:100A6000AB00210030082000AA0021002F08200040
:100A7000A90021002E082000A80021004408200021
:100A8000A700210043082000A60021004208200002
:100A9000A500210041082000A4008B312D238031C6
:100AA00020002708D6002608D5002508D4002408F1
:100AB000D30090312E208031200056082100C00044
:100AC000200055082100BF00200054082100BE006E
:100AD000200053082100BD00082E4708A800A901E6
:100AE000A835A90DA835A90D003028078400A0302D
:100AF000293D8500003FF000013FF100023FF20078
:100B0000033FF3004008F7003F08F6003E08F500F9
:100B10003D08F4009F314627803173082100B8005A
:100B20007208B7007108B6007008B50000302000E8
:100B3000A3000030A2000030A1000A30A000210074
:100B400038082000A700210037082000A600210057
:100B500036082000A500210035082000A4009E31A1
:100B60000C268031200023082100B8002000220834
:100B70002100B700200021082100B6002000200835
:100B80002100B5003508303EA80020088600210865
:100B90008700280881000130A0070030A13D4708E8
:100BA000A800A901A835A90DA835A90D003028076E
:100BB0008400A030293D8500003F2000A000013FB7
:100BC000A100023FA200033FA30021004008200033
:100BD000A70021003F082000A60021003E082000B9
:100BE000A50021003D082000A4009E310C26803184
:100BF000200023082100C000200022082100BF009F
:100C0000200021082100BE00200020082100BD0096
:100C10000130C702470A031D0E2E0F2E6D2D1E2E0A
:100C20002008860021088700303081000130A007AD
:100C30000030A13DFF30C507FF30C63D45084604E2
:100C4000031D232E242E102EC02F391B282E292EB3
:100C5000652E391E2C2E2D2E3D2E32088600870142
:100C6000403FBD00413FBE00423FBF00433FC00088
:100C70000430A8002808B207512E320886008701E8
:100C8000403FA800413FA9002808BD002908BE0038
:100C9000890D893B8909BF00C0000230A8002808DF
:100CA000B207C01F542E552E8A2E0330B9040030CF
:100CB000BA04BD09BE09BF09C009BD0A0319BE0AAD
:100CC0000319BF0A0319C00A8A2E391E682E692E1D
:100CD000792E320886008701403FBD00413FBE00AB
:100CE000423FBF00433FC0000430A8002808B207BD
:100CF0008A2E320886008701403FA800413FA900A4
:100D00002808BD002908BE00BF01C0010230A800AC
:100D10002808B20745084604031D8F2E902E9C2EEE
:100D200040083F043E043D04031D972E982E9C2E40
:100D30000130C5070030C63DC701C70A4708A800F3
:100D4000A901A835A90DA835A90D003028078400F0
:100D5000A030293D8500003FAA00013FAB00023FC3
:100D6000AC00033FAD002D084002031DC12E2C082E
:100D70003F02031DC12E2B083E02031DC12E2A086F
:100D80003D020318C42EC52EC62ED02E0130A80059
:100D90002808C7070A304706031DCF2ED02E9E2EE7
:100DA0004608803A803C031DD72E450847020318A9
:100DB000DA2EDB2EE12E21004508A8002808C70006
:100DC000F72E21004608803AA80080302802031D33
:100DD000EB2E470845020318EE2EEF2EF72E2100CA
:100DE0004708A800A9012808C5002908C600210055
:100DF000330834040319FD2EFE2E0E2F033039055F
:100E0000A80000303A05A900280829040319092F71
:100E10000A2F0E2FFF30B307FF30B43D3A1F112FBA
:100E2000122F292F4608803AA8003408803A280259
:100E3000031D1C2F3308450203181F2F202F262FB8
:100E400021004508B3024608B43B292F2100B30115
:100E5000B4013408803A803C031D302F3308470228
:100E60000318332F342F3D2F21004708A800A90174
:100E70002808B3022908B43B402F2100B301B40174
:100E8000330834040319452F462F5A2F20088600B3
:100E900021088700203081000130A0070030A13DEB
:100EA000FF30B307FF30B43D33083404031D592F1E
:100EB0005A2F462F03303905A80000303A05A90003
:100EC000280829040319652F662FB42F20088600EF
:100ED000210887002D3081000130A0070030A13D9E
:100EE000B42F00302000A3000030A2000030A10089
:100EF0000A30A0002100460885004508840084359A
:100F0000850D8435850D00308407A030853D003F78
:100F1000F000013FF100023FF200033FF300400800
:100F2000F7003F08F6003E08F5003D08F4009F3149
:100F30004627803173082000A7007208A6007108B8
:100F4000A5007008A4009E310C26803120002008E6
:100F5000303E2100A8002808C7002008860021088C
:100F60008700470881006C2FFF30C507FF30C63D62
:100F7000450A031DBF2F460A031DBF2FC02F712F27
:100F80002308A9002208A800A20A0319A30A280816
:100F90008400290885000008AA002A08C70047081D
:100FA000031DD32FD42FA8282008860021088700EE
:100FB000810108002100903100208731E400903148
:100FC00001208731E500903102208731E600903121
:100FD00003208731E7002000EF01CC30840000308F
:100FE000850018309C31392487312030840001304D
:100FF000850010309C313924873120009331842BB7
:101004002400161516190728082804280800053096
:10101400F3000F30F200F130890B0E28F20B0E288A
:10102400F30B0E2800003030803104208831343036
:1010340080310420883130308031042088310D30F3
:10104400F200FC30890B2428F20B24283030803144
:1010540004208831343080310420883130308031AC
:10106400042088310D30F200FC30890B3728F20B54
:1010740037283030803104208831343080310420E6
:1010840088313030803104208831C830890B4828B9
:10109400203080310420883124308031042088318C
:1010A40020308031042088310630890B57280032E3
:1010B400203080310420883124308031042088316C
:1010C40020308031042088314230890B6728003277
:1010D400803080310420883184308031042088318C
:1010E4008030803104208831003080310420883100
:1010F400043080310420883100308031042088316C
:101104004230890B83280032C0308031042088317A
:10111400C430803104208831C030803104208831CB
:10112400003080310420883104308031042088313B
:1011340000308031042088314230890B9F280032EE
:1011440010308031042088311430803104208831FB
:1011540010308031042088310D30F200FC30890BCE
:10116400B128F20BB12800308031042088310430DA
:1011740080310420883100308031042088314230AD
:10118400890BC228003260308031042088316430F9
:10119400803104208831603080310420883100306F
:1011A40080310420883104308031042088310030BB
:1011B4008031042088314230890BDE28003220300F
:1011C400803104208831243080310420883120305B
:1011D4008031042088310830F200CA30890BF028AD
:1011E400F20BF0280800200054088039D90059086F
:1011F400E1005435D9005908E300D31F022903291B
:101204000429631463080319082909291929630A9D
:10121400031D0D290E2916290030D4000030D300F7
:101224000030D2000030D100D317D401212900307E
:10123400D4000030D3000030D2000030D100580870
:101244008039D9005908E2006208610603192B2984
:101254002C292D2961175835D9005908E200D71FC8
:101264003429352936296214620803193A293B299D
:101274004B29620A031D3F29402948290030D80020
:101284000030D7000030D6000030D500D717D80181
:1012940053290030D8000030D7000030D600003089
:1012A400D500630862020318582959299D29611F32
:1012B4005C295D2961298030D9005908E106630859
:1012C400D9005908E4006208D9005908E300640809
:1012D400D9005908E2005108D9005908E40055081A
:1012E400D9005908D1006408D9005908D50052081A
:1012F400D9005908E4005608D9005908D2006408F6
:10130400D9005908D6005308D9005908E4005708F1
:10131400D9005908D3006408D9005908D7005408E3
:10132400D9005908E4005808D9005908D4006408C1
:10133400D9005908D800E4016208D900DA015A0832
:10134400DC0063085902DB00031CDC035C08803A00
:10135400DD0080305D02031DB1291A305B02031CDD
:10136400B429B529ED29200054085304520451042A
:10137400031DBD29BF290130C0290030D9005908F7
:10138400E4000030D4000030D3000030D20000303C
:10139400D1006208D9005908E300F429641CD32958
:1013A400D429DA2964360138D9005908E400DC2943
:1013B4000310E40C511CDF29E029E129E417013072
:1013C400D900D437D30CD20CD10CD90BE32901307A
:1013D400D9005908E307200062086302031CF329BB
:1013E400F429D029611BF729F829302A6308031D41
:1013F400FC29FD29062A0030D4000030D300003037
:10140400D2000030D1002C2B5508D1075608D23D0C
:101414005708D33D5808D43D541C112A122ABC2A1B
:10142400641C152A162A1C2A64360138D900590866
:10143400E4001E2A0310E40C511C212A222A232A28
:10144400E4170130D900D437D30CD20CD10CD90B0A
:10145400252A0130D9005908E307BC2A5408803AE8
:10146400D9005808803A5902031D422A57085302EA
:10147400031D422A56085202031D422A55085102EE
:101484000318452A462A7E2AFF30D900FF30DA00A5
:10149400FF30DB00FF30DC0051085502DD0052084C
:1014A400563BDE005308573BDF005408583BE0002E
:1014B4005D08D9075E08DA3D5F08DB3D6008DC3D66
:1014C4005C08D4005B08D3005A08D2005908D10044
:1014D4008030D9005908E106E409E40A6408031DD0
:1014E400742A752A862A0130D1070030D23D003093
:1014F400D33D0030D43D862A5508D1025608D23B4C
:101504005708D33B5808D43B54085304520451049D
:10151400031D8D2A8E2AB82A6408031D922A932A51
:10152400B82A0030D4000030D3000030D20000309C
:10153400D1002C2B0130D135D20DD30DD40D890B14
:101544009D2AE41FA62AA72AA82A5114641CAB2AA0
:10155400AC2AAF2A0314E40DB12A0310E40D630886
:101564000319B52AB62AB82A0130E302D31FBB2ACD
:10157400BC2A9C2AE201E41FC02AC12ACF2A64089B
:101584007F390319C62AC72ACA2AE201E20ACF2AE6
:10159400511CCD2ACE2ACF2AC72A62080319D32A7E
:1015A400D42A012B0130D1070030D23D0030D33D85
:1015B4000030D43D541CDF2AE02A012B5108D90005
:1015C4005208DA005308DB005408DC000130DD0067
:1015D400DC37DB0CDA0CD90CDD0BEA2A5C08D4000E
:1015E4005B08D3005A08D2005908D100630A0319D2
:1015F400FC2AFD2A012B0130D9005908E307630AAC
:101604000319052B062B0B2B6308031D0A2B0B2B2D
:10161400192B0030D4000030D3000030D200003049
:10162400D1006308031D172B182B192BE101631C30
:101634001C2B1D2B1F2BD317232B7F30D9005908AC
:10164400D3056336D9005908D400E11F2A2B2B2B6C
:101654002C2BD4170800200027088039AC002C0854
:10166400B1002735AC002C08B700A61F3A2B3B2B42
:101674003C2B371437080319402B412B502B370AC6
:10168400031D452B462B4E2B0030A7000030A6002F
:101694000030A5000030A400A617582B0030A70086
:1016A4000030A6000030A5000030A4002B088039CB
:1016B400AC002C08B1062B35AC002C08B600AA1FD0
:1016C400642B652B662B3614360803196A2B6B2B97
:1016D4007A2B360A031D6F2B702B782B0030AB004E
:1016E4000030AA000030A9000030A800AA17822BFD
:1016F4000030AB000030AA000030A9000030A80080
:1017040036080319862B872B8C2B3708031D8B2B4C
:101714008C2B952B0030A7000030A6000030A500CC
:101724000030A400832D2408AC002C08F0002A0803
:101734009D3119258B3171082000BD007008BC0053
:101744003C08AC00AD01AE01AF012F08B5002E0876
:10175400B4002D08B3002C08B2003D08AC00AD0164
:10176400AE01AF012F08BB002E08BA002D08B90046
:101774002C08B8002508AC002C08F00029089D317D
:1017840019258B3171082000BD007008BC003C088D
:10179400AC00AD01AE01AF012C08B2072D08B33D7A
:1017A4002E08B43D2F08B53D3D08AC00AD01AE0197
:1017B400AF012C08B8072D08B93D2E08BA3D2F08F3
:1017C400BB3D2608AC002C08F00028089D311925E3
:1017D4008B3171082000BD007008BC003C08AC00CF
:1017E400AD01AE01AF012C08B2072D08B33D2E08A0
:1017F400B43D2F08B53D3D08AC00AD01AE01AF01CD
:101804002C08B8072D08B93D2E08BA3D2F08BB3D5A
:101814000830B235B30DB40DB50D890B0B2C25086A
:10182400AC002C08F00028089D3119258B31710873
:101834002000BD007008BC003C08B2073D08B33D61
:101844000030B43DB53D2408AC002C08F000290854
:101854009D3119258B3171082000BD007008BC0032
:101864003C08B2073D08B33D0030B43DB53D0830F7
:10187400B235B30DB40DB50D890B3A2C2408AC0068
:101884002C08F00028089D3119258B31710820009F
:10189400BD007008BC003C08B2073D08B33D0030F1
:1018A400B43DB53D2508AC002C08F0002A089D3154
:1018B40019258B3171082000BD007008BC003C085C
:1018C400B8073D08B93D0030BA3DBB3D2608AC0021
:1018D4002C08F00029089D3119258B31710820004E
:1018E400BD007008BC003C08B8073D08B93D003095
:1018F400BA3DBB3D2608AC002C08F0002A089D31F7
:1019040019258B3171082000BD007008BC003C080B
:10191400AC003D08AD00AE01AF010830AC35AD0DF3
:10192400AE0DAF0D890B902C2C08B8072D08B93DCE
:101934002E08BA3D2F08BB3D3208AC003308AD0079
:101944003408AE003508AF001830AF36AE0CAD0C1D
:10195400AC0C890BA72C2C08B8072D08B93D2E0810
:10196400BA3D2F08BB3D0830B235B30DB40DB50DEB
:10197400890BB62C37083607AC00AD01AD0D2C0829
:10198400823EBC00FF302D3DBD00DF2C0130B83558
:10199400B90DBA0DBB0D890BC92CB51FD22CD32C94
:1019A400D42C38140130B235B30DB40DB50D890BF8
:1019B400D52CFF30BC07FF30BD3DBA1FE22CE32C11
:1019C400C82CB601B51FE72CE82C042DFF303205D6
:1019D400AC00FF303305AD00FF303405AE007F307E
:1019E4003505AF002F082E042D042C040319FB2CFD
:1019F400FC2CFF2CB601B60A042D381C022D032D35
:101A0400042DFC2C36080319082D092D312D013025
:101A1400B8070030B93D0030BA3D0030BB3D3B1C37
:101A2400142D152D312D3808AC003908AD003A08B5
:101A3400AE003B08AF000130B000AF37AE0CAD0CC8
:101A4400AC0CB00B1F2D2F08BB002E08BA002D08BC
:101A5400B9002C08B8000130BC070030BD3D3D087A
:101A6400803AAC0080302C02031D3A2DFF303C023A
:101A7400031C3D2D3E2D482D7F302000BB008030BF
:101A8400BA000030B9000030B800772D20003D08BE
:101A9400803AAC0080302C02031D522D01303C02F0
:101AA4000318552D562D612D00302000BB00003049
:101AB400BA000030B9000030B800B101772D200021
:101AC4003C08AC002C08B700FF30B805FF30B9055E
:101AD4007F30BA050030BB05371C712D722D732D74
:101AE400BA173736AC002C08BB003108AC002C0800
:101AF400BB043B08A7003A08A6003908A50038082B
:101B0400A40008002000D200D21F892D8A2DC62EE1
:101B1400D209D20A5208803A123E031C922D932D08
:101B24003F2E0A30F7000030F8005208F200F301AB
:101B3400F21BF3036430F0000030F1009E31F32611
:101B44008D317108FA007008F9009F31A0278D319A
:101B54007708093E2000C200C301C235C30DC23557
:101B6400C30D6B3042078400A030433D8500003F25
:101B7400C400013FC500023FC600033FC700470839
:101B8400A7004608A6004508A5004408A400643040
:101B9400F7000030F8005208F900FA01F91BFA03C3
:101BA4009F31A0278D317708123E2000C800C9015B
:101BB400C835C90DC835C90D6B3048078400A0303D
:101BC400493D8500003FCA00013FCB00023FCC00E5
:101BD400033FCD004D08AB004C08AA004B08A900F8
:101BE4004A08A8008B312D238D3120002708D1000D
:101BF4002608D0002508CF002408CE000A30F000C3
:101C04000030F1005208F200F301F21BF3039E319D
:101C1400F3268D3170082000C200C301C235C30D04
:101C2400C235C30D6B3042078400A030433D8500AC
:101C3400003FC400013FC500023FC600033FC70088
:101C44004708A7004608A6004508A5004408A400C4
:101C54005108AB005008AA004F08A9004E08A8007C
:101C64008B312D238D3120002708C1002608C000A8
:101C74002508BF002408BE00FF2F5208803A753E95
:101C8400031C452E462EA82E0A30F0000030F10029
:101C94005208F200F301F21BF3039E31F3268D3157
:101CA40070082000C200C301C235C30DC235C30D84
:101CB4006B3042078400A030433D8500003FC400E0
:101CC400013FC500023FC600033FC7004708A70005
:101CD4004608A6004508A5004408A4000A30F700F9
:101CE4000030F8005208F900FA01F91BFA039F3199
:101CF400A0278D317708093E2000C800C901C835E6
:101D0400C90DC835C90D6B3048078400A030493D62
:101D14008500003FCA00013FCB00023FCC00033FD7
:101D2400CD004D08AB004C08AA004B08A9004A0896
:101D3400A8008B312D238D3120002708C1002608EF
:101D4400C0002508BF002408BE00FF2F5208C200AF
:101D5400C301C235C30DC235C30D6B3042078400C5
:101D6400A030433D8500003FC400013FC500023F51
:101D7400C600033FC7004708C1004608C000450825
:101D8400BF004408BE00FF2F5208803A123E031CD5
:101D9400CC2ECD2E792F0A30F7000030F8005208EF
:101DA400F200F301F21BF3036430F0000030F100A1
:101DB4009E31F3268D317108FA007008F9009F31C5
:101DC400A0278D317708093E2000C200C301C23527
:101DD400C30DC235C30D373042078400A030433DE4
:101DE4008500003FC400013FC500023FC600033F19
:101DF400C7004708A7004608A6004508A5004408F0
:101E0400A4006430F7000030F8005208F900FA0129
:101E1400F91BFA039F31A0278D317708123E200069
:101E2400C800C901C835C90DC835C90D37304807C0
:101E34008400A030493D8500003FCA00013FCB002B
:101E4400023FCC00033FCD004D08AB004C08AA0074
:101E54004B08A9004A08A8008B312D238D3120009E
:101E64002708D1002608D0002508CF002408CE007A
:101E74000A30F0000030F1005208F200F301F21BC6
:101E8400F3039E31F3268D3170082000C200C30194
:101E9400C235C30DC235C30D373042078400A030AC
:101EA400433D8500003FC400013FC500023FC6001A
:101EB400033FC7004708A7004608A6004508A50039
:101EC4004408A4005108AB005008AA004F08A90018
:101ED4004E08A8008B312D238D3120002708C10026
:101EE4002608C0002508BF002408BE00FF2F5208A2
:101EF400803A753E031C7F2F802FE22F0A30F000BA
:101F04000030F1005208F200F301F21BF3039E319A
:101F1400F3268D3170082000C200C301C235C30D01
:101F2400C235C30D373042078400A030433D8500DD
:101F3400003FC400013FC500023FC600033FC70085
:101F44004708A7004608A6004508A5004408A400C1
:101F54000A30F7000030F8005208F900FA01F91BC2
:101F6400FA039F31A0278D317708093E2000C8006D
:101F7400C901C835C90DC835C90D373048078400B3
:101F8400A030493D8500003FCA00013FCB00023F1D
:101F9400CC00033FCD004D08AB004C08AA004B0811
:101FA400A9004A08A8008B312D238D312000270871
:101FB400C1002608C0002508BF002408BE00FF2F6A
:101FC4005208C200C301C235C30DC235C30D373038
:101FD40042078400A030433D8500003FC400013F18
:101FE400C500023FC600033FC7004708C1004608BA
:101FF400C0004508BF004408BE0008000034403457
:10200400143454342000A400210067082000A300E5
:10201400210066082000A200210065082000A1001C
:10202400210064082000A00003307802031C1B2850
:102034001C281E28F801F80A7808203E860087012B
:10204400010824078038F9007908A500F201250861
:102054009D3198259031080003102000550D560D30
:10206400D7005708DD005D08031D39283A284328A6
:102074000030D6000030D5000030D4000030D3004A
:10208400A2285308D7005408D8005508D900560888
:10209400DA001F30DA36D90CD80CD70C890B4C284F
:1020A4005708DB005B08DC00D517FF30D305FF3091
:1020B400D405FF30D5050030D6059630DD02DD1F8E
:1020C400642865287D285D08803A973E03186B28AC
:1020D4006C286D283A280130D636D50CD40CD30C94
:1020E400890B6E280130D7005708DD07031D7B28B4
:1020F4007C286D28922820305D02031C82288328C6
:102104008D283A280130D335D40DD50DD60D890B41
:1021140085280130DD025D08031D9128922884285A
:102124005C08031996289728A228D309D409D5094D
:10213400D609D30A0319D40A0319D50A0319D60AEE
:102144000800F80078080319A828A928BD28F31F57
:10215400AC28AD28BD287009FA007109FB0072098A
:10216400FC007309FD00FA0A0319FB0A0319FC0AAF
:102174000319FD0AC5287308FD007208FC007108E4
:10218400FB007008FA007308720471047004031DE4
:10219400CC28CD28D6280030F3000030F2000030DF
:1021A400F1000030F0004E299630F4007408F90074
:1021B400E6280130F4007408F9070130FD36FC0C00
:1021C400FB0CFA0C890BE028FE307D05031DEB287F
:1021D400EC28DB2800290130F4007408F9070130E9
:1021E400FA070030FB3D0030FC3D0030FD3D01307E
:1021F400FD36FC0CFB0CFA0C890BFA28FF307D052C
:10220400031D05290629ED2810290130F9020130A2
:10221400FA35FB0DFC0DFD0D890B0A29FC1B132956
:1022240014291A2902307902031819291A290729AD
:1022340079181D291E292629FF30FA05FF30FB05D0
:102244007F30FC05FF30FD050310F90C7908F4001C
:10225400F501F601F7011830F435F50DF60DF70D1B
:10226400890B2E297408FA047508FB047608FC040B
:102274007708FD0478080319402941294629F31FEA
:10228400442945294629FD177D08F3007C08F200FE
:102294007B08F1007A08F00008000310720D730D3A
:1022A400F80078082000A5002508031D5A295B2999
:1022B40064290030F3000030F2000030F1000030F7
:1022C400F000FD290310760D770DF8007808A400BE
:1022D4002408031D6E296F2970295B29F217FF302A
:1022E400F005FF30F105FF30F2050030F305F61775
:1022F400FF30F405FF30F505FF30F6050030F70533
:102304000030A3000030A2000030A1000030A00083
:102314007F30A502A0302407F8007808A5022030F9
:10232400F8007808A4000130A035A10DA20DA30D7A
:10233400890B962977087302031DAA29760872026D
:10234400031DAA2975087102031DAA2974087002C5
:10235400031CAD29AE29B7297408F0027508F13BB6
:102364007608F23B7708F33B20140130F035F10D89
:10237400F20DF30D890BB8290130A402031DC32902
:10238400C4299529A51FC729C829E0292508803A09
:102394009F3E0318CE29CF29D0295B290130A336CB
:1023A400A20CA10CA00C890BD1290130F8007808EB
:1023B400A507031DDE29DF29D029F52920302502B0
:1023C400031CE529E629F0295B290130A035A10D7C
:1023D400A20DA30D890BE8290130A5022508031DD0
:1023E400F429F529E7292308F3002208F20021083B
:1023F400F1002008F00008007008F8007108F900E6
:102404007208FA000310790D7A0DFB007B08200096
:10241400A5002508031D0F2A102A192A0030F300ED
:102424000030F2000030F1000030F000AD2A7408F2
:10243400F8007508F9007608FA000310790D7A0D92
:10244400FB007B08A4002408031D292A2A2A2B2A1E
:10245400102AF117FF30F005FF30F1050030F205C6
:10246400F517FF30F405FF30F5050030F6050030B0
:10247400A3000030A2000030A1000030A0007F3093
:10248400A50298302407F8007808A5021830F8004F
:102494007808A4000130A035A10DA20DA30D890B6D
:1024A4004D2A76087202031D5D2A75087102031D08
:1024B4005D2A74087002031C602A612A682A740861
:1024C400F0027508F13B7608F23B20140130F03538
:1024D400F10DF20D890B692A0130A402031D732A40
:1024E400742A4C2AA51F772A782A902A2508803A2C
:1024F400973E03187E2A7F2A802A102A0130A336A9
:10250400A20CA10CA00C890B812A0130F8007808D8
:10251400A507031D8E2A8F2A802AA52A1830250292
:10252400031C952A962AA02A102A0130A035A10D51
:10253400A20DA30D890B982A0130A5022508031DBD
:10254400A42AA52A972A2308F3002208F2002108C6
:10255400F1002008F00008009C313324923100304F
:102564002000B0000030AF000030AE000030AD00FD
:102574000030AB000030AA000030A9000030A800F1
:10258400AC013E2B9C315024923170087104031924
:10259400CC2ACD2AC42A9C31502492317003710470
:1025A4000319D52AD62ACD2A0630890BD72A003218
:1025B4002000B1010130AD35AE0DAF0DB00D890B6A
:1025C400DD2A9C312C2492310630890BE72A003213
:1025D4009C31332492319C31502492317008200074
:1025E400A4007108A5000030A51BFF30A600A700B9
:1025F4002408AD072508AE3D2608AF3D2708B03DA9
:102604000630890B032B003201302000A40024087B
:10261400B10718303102031C102B112BDC2AB10135
:102624009C312C2492310630890B162B00329C31BC
:10263400332492310630890B1D2B003201302000E7
:10264400A4002408B10731080319292B2A2B122BC3
:102654002D08A8072E08A93D2F08AA3D3008AB3D38
:102664000030B0000030AF000030AE000030AD00EC
:102674000130A4002408AC072108803A803C031DE3
:10268400452B20082C02031C482B492BC42A20006C
:102694002008F0002108F100890D893B8909F20026
:1026A400F3002B08F7002A08F6002908F50028088B
:1026B400F4009F314627923173082000B00072085D
:1026C400AF007108AE007008AD0000302D06A40004
:1026D40000302E06A50080302F06A60000303006FC
:1026E400A7002708B0002608AF002508AE0024087C
:1026F400AD003008A3002F08A2002E08A1002D0869
:10270400A00008009C314624933123008C018D01E4
:10271400023021008C0022008C018D011330240032
:102724009200283095009601940188310920933154
:102734009C317B249331F801003090310420933193
:10274400AE30F800A030F9009C31BD249331F8017B
:10275400F80A00309031042093319F30F800A03003
:10276400F9009C31BD2493310B302000EE0026305B
:10277400ED005D30890BBC2BED0BBC2BEE0BBC2BA1
:10278400003203302000A0000030A1009231AE22BC
:102794009331200023082100CF00200022082100CB
:1027A400CE00200021082100CD00200020082100B7
:1027B400CC009D313C259331F80100309031042048
:1027C4009331D4302100A0000030A100C430A20015
:1027D400A030A3004F08A7004E08A6004D08A5008E
:1027E4004C08A4008031A2209331D430F80000308A
:1027F400F9009C31BD24933106302000EE001330E3
:10280400ED00AD30890B042CED0B042CEE0B042CE5
:1028140000329D313C259331F80100309031042081
:102824009331D4302100A0000030A1002830A20050
:10283400A030A300ED30A4000130A5008031A22017
:102844009331D430F8000030F9009C31BD24933129
:1028540010302000EE003930ED000D30890B302CA3
:10286400ED0B302CEE0B302C003201302000A00098
:102874000030A1009231AE229331200023082100C0
:10288400D300200022082100D200200021082100CA
:10289400D100200020082100D00053082000B000FF
:1028A400210052082000AF00210051082000AE0092
:1028B400210050082000AD009E315726933120009E
:1028C40030082100CB0020002F082100CA0020007E
:1028D4002E082100C90020002D082100C800D43092
:1028E400A0000030A100CD30A200A030A300530806
:1028F400A7005208A6005108A5005008A400803182
:10290400A220933120302100A0000130A100B93071
:10291400A200A030A3004B08A7004A08A60049085B
:10292400A5004808A4008031A22093319D313C25A4
:102934009331F8010030903104209331D430F80001
:102944000030F9009C31BD249331F801F80A0030BD
:102954009031042093312030F8000130F9009C318B
:10296400BD2493310B302000EE002630ED005D30A5
:10297400890BBA2CED0BBA2CEE0BBA2C0032372C87
:10298400803102282000D0006E305002031CCB2C72
:10299400CC2C952D3F30A7000030A6000030A500B8
:1029A4000030A4006430F6000030F7005008C20084
:1029B400C3014208F8004308F9009D31D025943141
:1029C40077088500760884008435850D8435850D67
:1029D400B3308407A030853D003F2000C400013F90
:1029E400C500023FC600033FC7004708AB004608C6
:1029F400AA004508A9004408A8008B312D2394316E
:102A040020002708CF002608CE002508CD00240882
:102A1400CC000A30F6000030F7005008C200C301B1
:102A24004208F2004308F3006430F0000030F10083
:102A34009D31642594317108F9007008F8009D31C6
:102A4400D025943177088500760884008435850D77
:102A54008435850D8F308407A030853D003F2000EC
:102A6400C400013FC500023FC600033FC70047083A
:102A7400A7004608A6004508A5004408A4004F087E
:102A8400AB004E08AA004D08A9004C08A8008B31E1
:102A94002D23943120002708CB002608CA002508DE
:102AA400C9002408C8000A30F0000030F1005008C2
:102AB400C200C3014208F2004308F3009D316425BB
:102AC400943171088500700884008435850D84353F
:102AD400850D6B308407A030853D003F2000C40085
:102AE400013FC500023FC600033FC7004708A700D7
:102AF4004608A6004508A5004408A4004B08AB00FE
:102B04004A08AA004908A9004808A8008B312D23C7
:102B1400943120002708C1002608C0002508BF0002
:102B24002408BE004B2E0B305002031C9A2D9B2D03
:102B34001A2E3F30A7000030A6000030A500003058
:102B4400A4000A30F6000030F7005008C200C301A8
:102B54004208F8004308F9009D31D02594317708E4
:102B64008500760884008435850D8435850D8F3085
:102B74008407A030853D003F2000C400013FC5000C
:102B8400023FC600033FC7004708AB004608AA003F
:102B94004508A9004408A8008B312D239431200056
:102BA4002708CF002608CE002508CD002408CC0035
:102BB4000A30F0000030F1005008C200C30142089E
:102BC400F2004308F3009D316425943171088500B7
:102BD400700884008435850D8435850D6B30840739
:102BE400A030853D003F2000C400013FC500023FE6
:102BF400C600033FC7004708A7004608A6004508CB
:102C0400A5004408A4004F08AB004E08AA004D08D4
:102C1400A9004C08A8008B312D23943120002708EB
:102C2400C1002608C0002508BF002408BE004B2EA2
:102C34003F30A7000030A6000030A5000030A400FB
:102C44005008C200C301C235C30DC235C30D6B3079
:102C540042078400A030433D8500003FC400013F8B
:102C6400C500023FC600033FC7004708AB00460843
:102C7400AA004508A9004408A8008B312D239431EB
:102C840020002708C1002608C0002508BF0024082A
:102C9400BE00080077088039F80078082000A400F6
:102CA4007735F8007808AB00F61F592E5A2E5B2EA4
:102CB4002B142B0803195F2E602E702E2B0A031D74
:102CC400642E652E6D2E0030F7000030F6000030C3
:102CD400F5000030F400F617F701782E0030F70005
:102CE4000030F6000030F5000030F400730880393D
:102CF400F8007808A4067335F8007808AC00F21FD1
:102D0400842E852E862E2C142C0803198A2E8B2EA5
:102D14009B2E2C0A031D8F2E902E982E0030F3002C
:102D24000030F2000030F1000030F000F217F3013F
:102D3400A32E0030F3000030F2000030F100003028
:102D4400F0007308720471047004031DAA2EAB2EE4
:102D5400C42E0030F7000030F6000030F5000030DB
:102D6400F4008030F6047F30F7042408F800780873
:102D7400F7047708F3007608F2007508F100740888
:102D8400F000FF2F2B08031DC82EC92ED22E0030B1
:102D9400F3000030F2000030F1000030F000FF2FAB
:102DA4002B08F800F9017908FB002C087802FA00D6
:102DB400031CFB037A087F3EA50000307B3DA60080
:102DC4007708A3007608A2007508A1007408A00083
:102DD4000030F7000030F6000030F5000030F40059
:102DE4000030AA000030A9000030A8000030A7007D
:102DF400AC013A2F2C080319002F012F1B2F01308F
:102E0400A035A10DA20DA30D890B022F0130F435BD
:102E1400F50DF60DF70D890B092FAA1F122F132F8D
:102E2400142F74140130A735A80DA90DAA0D890B10
:102E3400152F73082302031D292F72082202031D74
:102E4400292F71082102031D292F70082002031C59
:102E54002C2F2D2F362F2A177008A0027108A13BA2
:102E64007208A23B7308A33B0130F8007808AC0752
:102E74001A302C02031C3F2F402FFC2E230822045F
:102E8400210420040319472F482F612F2714612F91
:102E94000130F435F50DF60DF70D890B4B2FAA1FF4
:102EA400542F552F562F74140130A735A80DA90D92
:102EB400AA0D890B572FFF30A507FF30A63DF61F3B
:102EC400642F652F4A2FAC01AA1F692F6A2F862F02
:102ED400FF302705F800FF302805F900FF302905E9
:102EE400FA007F302A05FB007B087A047904780411
:102EF40003197D2F7E2F812FAC01AC0A862F741C01
:102F0400842F852F862F7E2F2C0803198A2F8B2F31
:102F1400B32F0130F4070030F53D0030F63D0030AA
:102F2400F73D771C962F972FB32F7408F800750878
:102F3400F9007608FA007708FB000130FC00FB3743
:102F4400FA0CF90CF80CFC0BA12F7B08F7007A089B
:102F5400F6007908F5007808F4000130A507003080
:102F6400A63D2608803AF80080307802031DBC2F65
:102F7400FF302502031CBF2FC02FCD2FFF302000B0
:102F8400A5000030A6000030F7000030F600003045
:102F9400F5000030F40020002608803AF800803064
:102FA4007802031DD72F013025020318DA2FDB2FF7
:102FB400E72F2000A501A6010030F7000030F6003D
:102FC4000030F5000030F400A40120002508F800CA
:102FD4007808AB002B1CEF2FF02FF22FF617F62FEB
:102FE4007F30F8007808F6052B36F8007808F700EB
:0C2FF4002408F8007808F704BB2E080041
:1038580022000C1408001630210097000800FE30E2
:10386800F000700822008C05080064008001013116
:10387800890B3A2C003470302100990098012200FD
:10388800960108009C3199249C319C313F249C313D
:103898009C312F249C31080020000C0C0139F200C7
:1038A800F3017208F0007308F10008009C316F24DE
:1038B8009C31240016141618622C632C5F2C080007
:1038C800730872047104700403196B2C6C2C6E2C31
:1038D8008030F3060800240016081F39031D752CD4
:1038E800762C6F2C1419792C7A2C6F2C0800083040
:1038F800803104209C310830F20072082000EF006B
:103908000630890B852C00320800F000700824006E
:1039180091001418902C912C8D2C161B942C952CFE
:10392800912C9C316F249C31080022008C018D0160
:10393800FF3021008C00FF308D00FE3023008D0009
:103948001F308C0024008D01210095170800F1001C
:10395800F0013A3071020318B22CB32CBB2C303072
:103968007102031CB82CB92CBB2CF001F00A700CA6
:103978000800D02C78088400790885000008FA002F
:103988007A08FB000130F8070030F93DF201F20A2D
:103998007B089D3198259C3178088400790885003A
:1039A8001200031DD82CD92CBE2C0800F401F501F7
:1039B800701CDF2CE02CE42C7208F4077308F53D2A
:1039C8000130F235F30D890BE52C0130F136F00C9E
:1039D800890BEA2C70087104031DF32CF42CDC2CE1
:1039E8007508F1007408F000080080302000E8062F
:1039F8006C08D4006B08D3006A08D2006908D100AB
:103A08006808D8006708D7006608D6006508D5009A
:103A18008831F5209C3120005408E8005308E7005D
:103A28005208E6005108E5000800F800F401F50125
:103A38007008F200F3017208F6007308F700781CAA
:103A4800262D272D2B2D7608F4077708F53D013014
:103A5800F635F70D890B2C2D0310F80C7808031D8B
:103A6800362D372D232D7508F1007408F000080055
:103A78002000A601A7012608FC007C08F8002708FA
:103A8800903104209D31CB30F800A030F9009C31F2
:103A9800BD249D310130FC007C082000A7071030B0
:103AA8002702031C582D592D3F2D0130FC007C089E
:103AB800A60702302602031C622D632D3E2D080046
:103AC800700871040319692D6A2D932DF501F50A03
:103AD800762D0130F035F10D890B6E2D0130F40093
:103AE8007408F507F11F792D7A2D6D2D7108730271
:103AF800031D802D70087202031C832D842D882DD0
:103B08007008F2027108F33B0130F136F00C890BB2
:103B1800892D0130F502031D922D932D7A2D7308FE
:103B2800F1007208F0000800F5007508F03920006F
:103B38006F047204F3007308F6007508F30003308D
:103B4800F335FF3E031DA42D7335F0396F0472045D
:103B5800F4007408F7007608803104209D31760857
:103B68000438803104209D317608FB3980310420E7
:103B78009D314230890BBE2D0032770880310420F8
:103B88009D3177080438803104209D317708FB394E
:103B9800803104209D310800FB01FC017608770480
:103BA8000319D72DD82D072EFD01FD0AE42D01306C
:103BB800F635F70D890BDC2D0130FA007A08FD0780
:103BC800F71FE72DE82DDB2D0130FB35FC0D890BA8
:103BD800E92D77087902031DF32D76087802031C76
:103BE800F62DF72DFC2D7608F8027708F93B7B14A3
:103BF8000130F736F60C890BFD2D0130FD02031D4F
:103C0800062E072EE82D7C08F7007B08F600080032
:103C1800200023082204210420040319142E152E41
:103C28004E2EA901A90A232E0130A035A10DA20DFF
:103C3800A30D890B192E0130A8002808A907A31F76
:103C4800262E272E182E23082702031D352E22087C
:103C58002602031D352E21082502031D352E2008B6
:103C68002402031C382E392E412E2008A4022108D4
:103C7800A53B2208A63B2308A73B0130A336A20C8C
:103C8800A10CA00C890B422E0130A902031D4D2E58
:103C98004E2E272E2708A3002608A2002508A100DB
:103CA8002408A000080021004C0820002D02B100C3
:103CB80021004D0820002E3BB20021004E082000B4
:103CC8002F3BB30021004F082000303BB4003408DC
:103CD800F3003308F2003208F1003108F000003038
:103CE8009031A3209E3173082000B8007208B700F5
:103CF8007108B6007008B5004330F300F630F200E2
:103D08008030F1000030F0003808F7003708F6007E
:103D18003608F5003508F40096314C269E317308B4
:103D28002000B8007208B7007108B6007008B50026
:103D38003808B0003708AF003608AE003508AD00C7
:103D4800080000307005F80000307105F900803077
:103D58007205FA007F307305FB007B087A0479044A
:103D68007804031DB82EB92EC12E0030F3000030A0
:103D7800F2000030F1000030F00000307405F80067
:103D880000307505F90080307605FA007F30770538
:103D9800FB007B087A0479047804031DD42ED52E01
:103DA800DD2E0030F7000030F6000030F50000305E
:103DB800F40077087306031DEB2E76087206031DC0
:103DC800EB2E75087106031DEB2E74087006031997
:103DD800EE2EEF2EF12E0310F22E03140800F6013A
:103DE800F31FF72EF82EFF2EF209F309F20A031932
:103DF800F30AF601F60AF11F022F032F082FF00924
:103E0800F109F00A0319F10A7008710403190D2F5A
:103E18000E2F372FF501F50A1A2F0130F035F10D65
:103E2800890B122F0130F4007408F507F11F1D2FBC
:103E38001E2F112F71087302031D242F70087202A0
:103E4800031C272F282F2C2F7008F2027108F33B30
:103E58000130F136F00C890B2D2F0130F502031DCE
:103E6800362F372F1E2F760803193B2F3C2F412F53
:103E7800F209F309F20A0319F30A7308F100720848
:103E8800F00008000030FC000030FB000030FA00B1
:103E98000030F90073087204710470040319552F77
:103EA800562F972FFD01FD0A642F0130F035F10DD3
:103EB800F20DF30D890B5A2F0130F8007808FD0731
:103EC800F31F672F682F592F0130F935FA0DFB0DB5
:103ED800FC0D890B692F73087702031D7D2F72086B
:103EE8007602031D7D2F71087502031D7D2F700852
:103EF8007402031C802F812F8A2F7008F402710826
:103F0800F53B7208F63B7308F73B79140130F3363A
:103F1800F20CF10CF00C890B8B2F0130FD02031D04
:103F2800962F972F682F7C08F3007B08F2007A08F9
:103F3800F1007908F00008002000A101F81FA52F62
:103F4800A62FAD2FF709F809F70A0319F80AA101F6
:103F5800A10AFA1FB02FB12FBA2FF909FA09F90AE5
:103F68000319FA0A0130FB007B08A106A201A3018C
:103F7800770878040319C12FC22FF12FA001A00AD6
:103F8800CE2F0130F735F80D890BC62F0130FB0015
:103F98007B08A007F81FD12FD22FC52F0130A235DB
:103FA800A30D890BD32F78087A02031DDD2F77081C
:103FB8007902031CE02FE12FE62F7708F902780831
:103FC800FA3B22140130F836F70C890BE72F013041
:103FD800A002031DF02FF12FD22F21080319F52F6E
:103FE800F62FFB2FA209A309A20A0319A30A230883
:103FF800F8002208F70008000134003400340034C7
:104008000A3400340034003464340034003400349A
:10401800E8340334003400341034273400340034D6
:10402800A034863401340034403442340F34003430
:1040380080349634983400340034E134F53405344F
:104048000034CA349A343B3444346934763469349D
:10405800643465342034763461346C343A34203432
:104068002534643400340034003480343F34003460
:1040780000342034413400340034C834423400342D
:1040880000347A344434003440341C344634003428
:104098005034C334473400342434743449348034BD
:1040A800963418344B342034BC34BE344C34283461
:1040B8006B346E344E34F934023415345034EC34E5
:1040C8007834AD346034CA34F2344934713400344D
:1040D800003480343F34CD34CC34CC343D340A34CD
:1040E800D73423343C346F34123483343A3417349D
:1040F800B734D1343834AC34C53427343734BD34CC
:104108003734863435349534BF34D6343334773441
:10411800CC342B3432345F34703489343034FF3447
:10412800E634DB342E340834E5343C341E34603451
:104138004234A2340D344C346F3461346434203446
:10414800633465346C346C34203455346E346934DB
:104158007434003449346E346934743469346134E5
:104168006C3469347A3465340034253433342E346D
:104178003234663420346734723461346D34003438
:1041880025346C3475342034763461346C342034FE
:10419800003425346C3475342034763461346C340E
:0241A8000034E1
:020000040001F9
:04000E00E43FFF1EAE
:00000001FF
