:08000000803102288731E52F51
:1002EA0022008C1408001630210097000800003400
:1002FA00403414345434FD30F000700822008C0568
:10030A000800640080010131890B872900347030AC
:10031A0021009900980122009601080020000C0C87
:10032A00F000F00C700C0139080024001E151E198B
:10033A009F29A0299C2908008131F321813181312B
:10034A008C21813181317821813108008131B521B7
:10035A00813124001E141E18B329B429B0290800BB
:10036A0024001E081F39031DBB29BC29B5291C19E5
:10037A00BF29C029B529080008308131DF21813120
:10038A000830F20072082000D0000630890BCB2911
:10039A0000320800F0007008240099001C18D629C1
:1003AA00D729D3291E1BDA29DB29D7298131B5217F
:1003BA0081310800F1008131AB2181314E30813128
:1003CA00CF21813171088131CF21813181319A2147
:1003DA0081310630890BEF290032080022008C0196
:1003EA008D01FF3021008C00FF308D00FE3023008C
:1003FA008D001F308C0024008D018C01210095177F
:10040A0022009D019E0108001C2A780884007908B0
:10041A0085000008FA007A08FB000130F80700306E
:10042A00F93DF201F20A7B088231A1228231780871
:10043A008400790885001200031D242A252A0A2A25
:10044A0008002000A4006408A3006308A200620850
:10045A00A1006108A00003307802031C352A362A5D
:10046A00382AF801F80A7808203E86008701010830
:10047A0024078038F9007908A500F201250882319D
:10048A00A122823108002000A601A7012608FC004B
:10049A007C08F80027088231262282314A30F80087
:1004AA008830F9008231092282310130FC007C084F
:1004BA002000A70710302702031C642A652A4B2A4A
:1004CA000130FC007C08A60702302602031C6E2AB3
:1004DA006F2A4A2A080020004A082002A40021089C
:1004EA00A5004B08031C4B0F7B2A7C2AA502220875
:1004FA00A6004C08031C4C0F832A842AA60224084F
:10050A00F0002508F1002608F200F30100308431DA
:10051A007024823173082000AA007208A9007108A9
:10052A00A8007008A7002A08A3002908A200280822
:10053A00A1002708A0000800F5007508F03920007E
:10054A0050047204F3007308F6007508F3000330D0
:10055A00F335FF3E031DAD2A7335F039500472049A
:10056A00F4007408F70076088131DF2182317608B9
:10057A0004388131DF2182317608FB398131DF216C
:10058A0082314230890BC72A003277088131DF2154
:10059A008231770804388131DF2182317708FB39CB
:1005AA008131DF218231080020002308220421043E
:1005BA0020040319E12AE22A1B2BA901A90AF02A1D
:1005CA000130A035A10DA20DA30D890BE62A013039
:1005DA00A8002808A907A31FF32AF42AE52A230852
:1005EA002702031D022B22082602031D022B2108C3
:1005FA002502031D022B20082402031C052B062BAF
:10060A000E2B2008A4022108A53B2208A63B23089A
:10061A00A73B0130A336A20CA10CA00C890B0F2B0F
:10062A000130A902031D1A2B1B2BF42A2708A30049
:10063A002608A2002508A1002408A000080000300E
:10064A00F7000030F8000030F900720871047004F5
:10065A000319302B312B692BFA01FA0A3E2B013090
:10066A00F035F10DF20D890B352B0130F6007608C5
:10067A00FA07F21F412B422B342B0130F735F80DC4
:10068A00F90D890B432B72087502031D522B710851
:10069A007402031D522B70087302031C552B562B30
:1006AA005D2B7008F3027108F43B7208F53B77146E
:1006BA000130F236F10CF00C890B5E2B0130FA0294
:1006CA00031D682B692B422B7708F0007808F1008C
:1006DA007908F20008000030FC000030FB0000300E
:1006EA00FA000030F90073087204710470040319E7
:1006FA007F2B802BC12BFD01FD0A8E2B0130F0359B
:10070A00F10DF20DF30D890B842B0130F8007808F6
:10071A00FD07F31F912B922B832B0130F935FA0D2C
:10072A00FB0DFC0D890B932B73087702031DA72B76
:10073A0072087602031DA72B71087502031DA72BE9
:10074A0070087402031CAA2BAB2BB42B7008F4029A
:10075A007108F53B7208F63B7308F73B79140130D0
:10076A00F336F20CF10CF00C890BB52B0130FD02BB
:10077A00031DC02BC12B922B7C08F3007B08F200CF
:10078A007A08F1007908F00008002000A7008131FA
:10079A008021833100302000A8000030A9000030F9
:1007AA00AA000030A3000030A4000030A500A60172
:1007BA00492C813193218331003A0319E52BE62B29
:1007CA00DE2B813193218331013A0319ED2BEE2B74
:1007DA00E62B0630890BEF2B00322000AB010130EB
:1007EA00A835A90DAA0D890BF52B81317521833105
:1007FA000630890BFE2B0032813180218331813111
:10080A00932183312000A000A101A2012008A8079A
:10081A002108A93D2208AA3D0630890B122C003274
:10082A0001302000A0002008AB0718302B02031C5F
:10083A001F2C202CF42BAB0181317521833106301A
:10084A00890B252C00328131802183310630890BB6
:10085A002C2C003201302000A0002008AB072B0806
:10086A000319382C392C212C2808A3072908A43D60
:10087A002A08A53D0030A8000030A9000030AA00CF
:10088A000130A0002008A60727082602031C4E2CC8
:10089A004F2CDE2B2708A000A101A2012008F0009E
:1008AA002108F1002208F2002308F3002408F400CA
:1008BA002508F50083312423833170082000A8001D
:1008CA007108A9007208AA002808FB002908FC0080
:1008DA002A08FD000800F80078080319752C762C00
:1008EA008A2CF31F792C7A2C8A2C7009FA00710948
:1008FA00FB007209FC007309FD00FA0A0319FB0ADE
:10090A000319FC0A0319FD0A922C7308FD007208E8
:10091A00FC007108FB007008FA0073087204710485
:10092A007004031D992C9A2CA32C0030F30000307C
:10093A00F2000030F1000030F0001B2D9630F40078
:10094A007408F900B32C0130F4007408F907013077
:10095A00FD36FC0CFB0CFA0C890BAD2CFE307D0528
:10096A00031DB82CB92CA82CCD2C0130F400740826
:10097A00F9070130FA070030FB3D0030FC3D00303A
:10098A00FD3D0130FD36FC0CFB0CFA0C890BC72C23
:10099A00FF307D05031DD22CD32CBA2CDD2C01305F
:1009AA00F9020130FA35FB0DFC0DFD0D890BD72C30
:1009BA00FC1BE02CE12CE72C023079020318E62C10
:1009CA00E72CD42C7918EA2CEB2CF32CFF30FA05FF
:1009DA00FF30FB057F30FC05FF30FD050310F90CE5
:1009EA007908F400F501F601F7011830F435F50D30
:1009FA00F60DF70D890BFB2C7408FA047508FB0435
:100A0A007608FC047708FD04780803190D2D0E2DCD
:100A1A00132DF31F112D122D132DFD177D08F30031
:100A2A007C08F2007B08F1007A08F00008008131A6
:100A3A00A1218531243024008D0021009513230043
:100A4A008C018D01083021008C0022008C018D015F
:100A5A00133024009A0028309D009E019C018531A4
:100A6A00F62585318131C1218531F8010030823185
:100A7A00262285313930F8008830F900823109227E
:100A8A0085310B302000C1002630C0005D30890B53
:100A9A004C2DC00B4C2DC10B4C2D00323230833102
:100AAA00CA2385317B082000CA007C08CB007D0858
:100ABA00CC00823148228531F80100308231262269
:100ACA0085312830F8008830F900823109228531D1
:100ADA00F801F80A003082312622853120004D08BB
:100AEA00A0004E08A1004F08A20082317022853171
:100AFA0020002308C5002208C4002108C3002008DA
:100B0A00C2004430AA008830AB004508AF00440850
:100B1A00AE004308AD004208AC0051308631E226EF
:100B2A0085315130F8000030F900823109228531CF
:100B3A001F302000C1007130C0001E30890BA32D68
:100B4A00C00BA32DC10BA32D000008308331CA238B
:100B5A0085317B082000CD007C08CE007D08CF00BF
:100B6A004D08A0004E08A1004F08A2008231702251
:100B7A00853120002308C9002208C8002108C700BF
:100B8A002008C6004430AA008830AB004908AF00EC
:100B9A004808AE004708AD004608AC00513086311F
:100BAA00E2268531823148228531F80100308231CE
:100BBA00262285315130F8000030F90082310922AD
:100BCA00853102302000C1000430C000BA30890BE0
:100BDA00EC2DC00BEC2DC10BEC2D0000AA2D8031A1
:100BEA0002280530F3000F30F200F130890BFB2D9B
:100BFA00F20BFB2DF30BFB2D000030308131DF218E
:100C0A00853134308131DF21853130308131DF2146
:100C1A0085310D30F200FC30890B112EF20B112EAA
:100C2A0030308131DF21853134308131DF21853126
:100C3A0030308131DF2185310D30F200FC30890BF3
:100C4A00242EF20B242E30308131DF2185313430CD
:100C5A008131DF21853130308131DF218531C83062
:100C6A00890B352E20308131DF21853124308131C5
:100C7A00DF21853120308131DF2185310630890B32
:100C8A00442E003220308131DF21853124308131F8
:100C9A00DF21853120308131DF2185314230890BD6
:100CAA00542E003280308131DF2185318430813108
:100CBA00DF21853180308131DF218531003081317A
:100CCA00DF21853104308131DF21853100308131E6
:100CDA00DF2185314230890B702E0032C0308131DC
:100CEA00DF218531C4308131DF218531C030813146
:100CFA00DF21853100308131DF21853104308131B6
:100D0A00DF21853100308131DF2185314230890B85
:100D1A008C2E003210308131DF218531143081313F
:100D2A00DF21853110308131DF2185310D30F2002C
:100D3A00FC30890B9E2EF20B9E2E00308131DF2172
:100D4A00853104308131DF21853100308131DF2165
:100D5A0085314230890BAF2E003260308131DF217C
:100D6A00853164308131DF21853160308131DF2185
:100D7A00853100308131DF21853104308131DF2135
:100D8A00853100308131DF2185314230890BCB2E0C
:100D9A00003220308131DF21853124308131DF2159
:100DAA00853120308131DF2185310830F200CA30A7
:100DBA00890BDD2EF20BDD2E08002000BE002C3040
:100DCA00B0003008BD00CC2F25303F060319EE2EA7
:100DDA00EF2EFB2E3F08B0003E0886008701300840
:100DEA0081000130B0003008BE07CC2FB601042FB5
:100DFA003616042FC030B0003008B6041B2F2B085B
:100E0A00B1002A08B000AA0A0319AB0A3008840004
:100E1A00310885000008BF00003A0319E02F6C3A38
:100E2A000319FD2E193A0319FF2ECC2F361E1E2F39
:100E3A001F2F2F2F3D0886008701403FB900413FF1
:100E4A00BA00423FBB00433FBC000430B000300848
:100E5A00BD07402F3D0886008701403FB000413F53
:100E6A00B1003008B9003108BA00BB01BC01023038
:100E7A00B0003008BD07BF01BF0A3F08B000B1018A
:100E8A00B035B10DB035B10D00303007840088306F
:100E9A00313D8500003FB200013FB300023FB4007C
:100EAA00033FB50035083C02031D652F34083B0299
:100EBA00031D652F33083A02031D652F32083902D4
:100ECA000318682F692F6A2F742F0130B000300879
:100EDA00BF070A303F06031D732F742F422F3F08A6
:100EEA00B000B1013008B7003108B800C02F003097
:100EFA00A3000030A2000030A1000A30A000380888
:100F0A008500370884008435850D8435850D0030C9
:100F1A0084078830853D003FF000013FF100023F21
:100F2A00F200033FF3003C08F7003B08F6003A08DA
:100F3A00F5003908F40083317023863173082000E4
:100F4A00A7007208A6007108A5007008A4008231E3
:100F5A00D922863120002008303EB0003008BF0078
:100F6A003F08B0003E088600870130088100013042
:100F7A00B0003008BE07FF30B707FF30B83D370A68
:100F8A00031DCB2F380A031DCB2FCC2F7C2F2B0808
:100F9A00B1002A08B000AA0A0319AB0A3008840073
:100FAA00310885000008B2003208BF003F08031D5F
:100FBA00DF2FE02FE92E3E08860087018101080015
:100FCA0081317C218731E10081317D218731E20045
:100FDA0081317E218731E30081317F218731E4002D
:100FEA004A308400003085001730813186218731EC
:100FFA00200085311C2D01340034003400340A34B9
:10100A000034003400346434003400340034E834EA
:10101A000334003400341034273400340034A0344C
:10102A00863401340034403442340F34003480347E
:10103A009634983400340034E134F53405340034FD
:10104A00CA349A343B346C346F3461346434203497
:10105A00633465346C346C342034733465347434DA
:10106A00203475347034003449346E34693474343D
:10107A00693461346C3469347A3465340034253423
:0E108A006C3475342034673400342034003464
:020000040001F9
:04000E00E43FFF1EAE
:00000001FF
